{
	"contracts/Lottery.sol": {
		"Lottery": {
			"abi": [
				{
					"inputs": [],
					"stateMutability": "nonpayable",
					"type": "constructor"
				},
				{
					"inputs": [],
					"name": "getBalance",
					"outputs": [
						{
							"internalType": "uint256",
							"name": "",
							"type": "uint256"
						}
					],
					"stateMutability": "view",
					"type": "function"
				},
				{
					"inputs": [],
					"name": "manager",
					"outputs": [
						{
							"internalType": "address",
							"name": "",
							"type": "address"
						}
					],
					"stateMutability": "view",
					"type": "function"
				},
				{
					"inputs": [],
					"name": "pickWinner",
					"outputs": [],
					"stateMutability": "nonpayable",
					"type": "function"
				},
				{
					"inputs": [
						{
							"internalType": "uint256",
							"name": "",
							"type": "uint256"
						}
					],
					"name": "players",
					"outputs": [
						{
							"internalType": "address payable",
							"name": "",
							"type": "address"
						}
					],
					"stateMutability": "view",
					"type": "function"
				},
				{
					"stateMutability": "payable",
					"type": "receive"
				}
			],
			"devdoc": {
				"kind": "dev",
				"methods": {},
				"version": 1
			},
			"evm": {
				"assembly": "    /* \"contracts/Lottery.sol\":70:1195  contract Lottery{... */\n  mstore(0x40, 0x80)\n    /* \"contracts/Lottery.sol\":159:249  constructor(){... */\n  callvalue\n  dup1\n  iszero\n  tag_1\n  jumpi\n  0x00\n  dup1\n  revert\ntag_1:\n  pop\n    /* \"contracts/Lottery.sol\":192:202  msg.sender */\n  caller\n    /* \"contracts/Lottery.sol\":182:189  manager */\n  0x01\n  0x00\n    /* \"contracts/Lottery.sol\":182:202  manager = msg.sender */\n  0x0100\n  exp\n  dup2\n  sload\n  dup2\n  0xffffffffffffffffffffffffffffffffffffffff\n  mul\n  not\n  and\n  swap1\n  dup4\n  0xffffffffffffffffffffffffffffffffffffffff\n  and\n  mul\n  or\n  swap1\n  sstore\n  pop\n    /* \"contracts/Lottery.sol\":212:219  players */\n  0x00\n    /* \"contracts/Lottery.sol\":233:240  manager */\n  0x01\n  0x00\n  swap1\n  sload\n  swap1\n  0x0100\n  exp\n  swap1\n  div\n  0xffffffffffffffffffffffffffffffffffffffff\n  and\n    /* \"contracts/Lottery.sol\":212:242  players.push(payable(manager)) */\n  swap1\n  dup1\n  0x01\n  dup2\n  sload\n  add\n  dup1\n  dup3\n  sstore\n  dup1\n  swap2\n  pop\n  pop\n  0x01\n  swap1\n  sub\n  swap1\n  0x00\n  mstore\n  keccak256(0x00, 0x20)\n  add\n  0x00\n  swap1\n  swap2\n  swap1\n  swap2\n  swap1\n  swap2\n  0x0100\n  exp\n  dup2\n  sload\n  dup2\n  0xffffffffffffffffffffffffffffffffffffffff\n  mul\n  not\n  and\n  swap1\n  dup4\n  0xffffffffffffffffffffffffffffffffffffffff\n  and\n  mul\n  or\n  swap1\n  sstore\n  pop\n    /* \"contracts/Lottery.sol\":70:1195  contract Lottery{... */\n  dataSize(sub_0)\n  dup1\n  dataOffset(sub_0)\n  0x00\n  codecopy\n  0x00\n  return\nstop\n\nsub_0: assembly {\n        /* \"contracts/Lottery.sol\":70:1195  contract Lottery{... */\n      mstore(0x40, 0x80)\n      jumpi(tag_1, lt(calldatasize, 0x04))\n      shr(0xe0, calldataload(0x00))\n      dup1\n      0x12065fe0\n      eq\n      tag_3\n      jumpi\n      dup1\n      0x481c6a75\n      eq\n      tag_4\n      jumpi\n      dup1\n      0x5d495aea\n      eq\n      tag_5\n      jumpi\n      dup1\n      0xf71d96cb\n      eq\n      tag_6\n      jumpi\n      jump(tag_2)\n    tag_1:\n      jumpi(tag_2, calldatasize)\n        /* \"contracts/Lottery.sol\":313:320  manager */\n      0x01\n      0x00\n      swap1\n      sload\n      swap1\n      0x0100\n      exp\n      swap1\n      div\n      0xffffffffffffffffffffffffffffffffffffffff\n      and\n        /* \"contracts/Lottery.sol\":299:320  msg.sender != manager */\n      0xffffffffffffffffffffffffffffffffffffffff\n      and\n        /* \"contracts/Lottery.sol\":299:309  msg.sender */\n      caller\n        /* \"contracts/Lottery.sol\":299:320  msg.sender != manager */\n      0xffffffffffffffffffffffffffffffffffffffff\n      and\n      eq\n      iszero\n        /* \"contracts/Lottery.sol\":291:321  require(msg.sender != manager) */\n      tag_9\n      jumpi\n      0x00\n      dup1\n      revert\n    tag_9:\n        /* \"contracts/Lottery.sol\":352:362  0.01 ether */\n      0x2386f26fc10000\n        /* \"contracts/Lottery.sol\":339:348  msg.value */\n      callvalue\n        /* \"contracts/Lottery.sol\":339:362  msg.value == 0.01 ether */\n      eq\n        /* \"contracts/Lottery.sol\":331:420  require(msg.value == 0.01 ether, \"This contract only accepts transactions of 0.01 ether\") */\n      tag_10\n      jumpi\n      mload(0x40)\n      0x08c379a000000000000000000000000000000000000000000000000000000000\n      dup2\n      mstore\n      0x04\n      add\n      tag_11\n      swap1\n      tag_12\n      jump\t// in\n    tag_11:\n      mload(0x40)\n      dup1\n      swap2\n      sub\n      swap1\n      revert\n    tag_10:\n        /* \"contracts/Lottery.sol\":430:437  players */\n      0x00\n        /* \"contracts/Lottery.sol\":452:462  msg.sender */\n      caller\n        /* \"contracts/Lottery.sol\":430:464  players.push(payable (msg.sender)) */\n      swap1\n      dup1\n      0x01\n      dup2\n      sload\n      add\n      dup1\n      dup3\n      sstore\n      dup1\n      swap2\n      pop\n      pop\n      0x01\n      swap1\n      sub\n      swap1\n      0x00\n      mstore\n      keccak256(0x00, 0x20)\n      add\n      0x00\n      swap1\n      swap2\n      swap1\n      swap2\n      swap1\n      swap2\n      0x0100\n      exp\n      dup2\n      sload\n      dup2\n      0xffffffffffffffffffffffffffffffffffffffff\n      mul\n      not\n      and\n      swap1\n      dup4\n      0xffffffffffffffffffffffffffffffffffffffff\n      and\n      mul\n      or\n      swap1\n      sstore\n      pop\n        /* \"contracts/Lottery.sol\":70:1195  contract Lottery{... */\n      stop\n    tag_2:\n      0x00\n      dup1\n      revert\n        /* \"contracts/Lottery.sol\":562:665  function getBalance() public view onlyOwner returns (uint){... */\n    tag_3:\n      callvalue\n      dup1\n      iszero\n      tag_14\n      jumpi\n      0x00\n      dup1\n      revert\n    tag_14:\n      pop\n      tag_15\n      tag_16\n      jump\t// in\n    tag_15:\n      mload(0x40)\n      tag_17\n      swap2\n      swap1\n      tag_18\n      jump\t// in\n    tag_17:\n      mload(0x40)\n      dup1\n      swap2\n      sub\n      swap1\n      return\n        /* \"contracts/Lottery.sol\":130:152  address public manager */\n    tag_4:\n      callvalue\n      dup1\n      iszero\n      tag_19\n      jumpi\n      0x00\n      dup1\n      revert\n    tag_19:\n      pop\n      tag_20\n      tag_21\n      jump\t// in\n    tag_20:\n      mload(0x40)\n      tag_22\n      swap2\n      swap1\n      tag_23\n      jump\t// in\n    tag_22:\n      mload(0x40)\n      dup1\n      swap2\n      sub\n      swap1\n      return\n        /* \"contracts/Lottery.sol\":831:1193  function pickWinner() public {... */\n    tag_5:\n      callvalue\n      dup1\n      iszero\n      tag_24\n      jumpi\n      0x00\n      dup1\n      revert\n    tag_24:\n      pop\n      tag_25\n      tag_26\n      jump\t// in\n    tag_25:\n      stop\n        /* \"contracts/Lottery.sol\":92:124  address payable[] public players */\n    tag_6:\n      callvalue\n      dup1\n      iszero\n      tag_27\n      jumpi\n      0x00\n      dup1\n      revert\n    tag_27:\n      pop\n      tag_28\n      0x04\n      dup1\n      calldatasize\n      sub\n      dup2\n      add\n      swap1\n      tag_29\n      swap2\n      swap1\n      tag_30\n      jump\t// in\n    tag_29:\n      tag_31\n      jump\t// in\n    tag_28:\n      mload(0x40)\n      tag_32\n      swap2\n      swap1\n      tag_33\n      jump\t// in\n    tag_32:\n      mload(0x40)\n      dup1\n      swap2\n      sub\n      swap1\n      return\n        /* \"contracts/Lottery.sol\":562:665  function getBalance() public view onlyOwner returns (uint){... */\n    tag_16:\n        /* \"contracts/Lottery.sol\":615:619  uint */\n      0x00\n        /* \"contracts/Lottery.sol\":530:537  manager */\n      0x01\n      0x00\n      swap1\n      sload\n      swap1\n      0x0100\n      exp\n      swap1\n      div\n      0xffffffffffffffffffffffffffffffffffffffff\n      and\n        /* \"contracts/Lottery.sol\":516:537  msg.sender == manager */\n      0xffffffffffffffffffffffffffffffffffffffff\n      and\n        /* \"contracts/Lottery.sol\":516:526  msg.sender */\n      caller\n        /* \"contracts/Lottery.sol\":516:537  msg.sender == manager */\n      0xffffffffffffffffffffffffffffffffffffffff\n      and\n      eq\n        /* \"contracts/Lottery.sol\":507:538  require (msg.sender == manager) */\n      tag_35\n      jumpi\n      0x00\n      dup1\n      revert\n    tag_35:\n        /* \"contracts/Lottery.sol\":637:658  address(this).balance */\n      selfbalance\n        /* \"contracts/Lottery.sol\":630:658  return address(this).balance */\n      swap1\n      pop\n        /* \"contracts/Lottery.sol\":562:665  function getBalance() public view onlyOwner returns (uint){... */\n      swap1\n      jump\t// out\n        /* \"contracts/Lottery.sol\":130:152  address public manager */\n    tag_21:\n      0x01\n      0x00\n      swap1\n      sload\n      swap1\n      0x0100\n      exp\n      swap1\n      div\n      0xffffffffffffffffffffffffffffffffffffffff\n      and\n      dup2\n      jump\t// out\n        /* \"contracts/Lottery.sol\":831:1193  function pickWinner() public {... */\n    tag_26:\n        /* \"contracts/Lottery.sol\":896:898  10 */\n      0x0a\n        /* \"contracts/Lottery.sol\":878:885  players */\n      0x00\n        /* \"contracts/Lottery.sol\":878:892  players.length */\n      dup1\n      sload\n      swap1\n      pop\n        /* \"contracts/Lottery.sol\":878:898  players.length >= 10 */\n      lt\n      iszero\n        /* \"contracts/Lottery.sol\":870:899  require(players.length >= 10) */\n      tag_38\n      jumpi\n      0x00\n      dup1\n      revert\n    tag_38:\n        /* \"contracts/Lottery.sol\":909:915  uint r */\n      0x00\n        /* \"contracts/Lottery.sol\":918:926  random() */\n      tag_39\n        /* \"contracts/Lottery.sol\":918:924  random */\n      tag_40\n        /* \"contracts/Lottery.sol\":918:926  random() */\n      jump\t// in\n    tag_39:\n        /* \"contracts/Lottery.sol\":909:926  uint r = random() */\n      swap1\n      pop\n        /* \"contracts/Lottery.sol\":936:953  uint winningIndex */\n      0x00\n        /* \"contracts/Lottery.sol\":960:967  players */\n      dup1\n        /* \"contracts/Lottery.sol\":960:974  players.length */\n      dup1\n      sload\n      swap1\n      pop\n        /* \"contracts/Lottery.sol\":956:957  r */\n      dup3\n        /* \"contracts/Lottery.sol\":956:974  r % players.length */\n      tag_41\n      swap2\n      swap1\n      tag_42\n      jump\t// in\n    tag_41:\n        /* \"contracts/Lottery.sol\":936:974  uint winningIndex = r % players.length */\n      swap1\n      pop\n        /* \"contracts/Lottery.sol\":984:1006  address payable winner */\n      0x00\n        /* \"contracts/Lottery.sol\":1009:1016  players */\n      dup1\n        /* \"contracts/Lottery.sol\":1017:1029  winningIndex */\n      dup3\n        /* \"contracts/Lottery.sol\":1009:1030  players[winningIndex] */\n      dup2\n      sload\n      dup2\n      lt\n      tag_43\n      jumpi\n      tag_44\n      tag_45\n      jump\t// in\n    tag_44:\n    tag_43:\n      swap1\n      0x00\n      mstore\n      keccak256(0x00, 0x20)\n      add\n      0x00\n      swap1\n      sload\n      swap1\n      0x0100\n      exp\n      swap1\n      div\n      0xffffffffffffffffffffffffffffffffffffffff\n      and\n        /* \"contracts/Lottery.sol\":984:1030  address payable winner = players[winningIndex] */\n      swap1\n      pop\n        /* \"contracts/Lottery.sol\":1040:1046  winner */\n      dup1\n        /* \"contracts/Lottery.sol\":1040:1055  winner.transfer */\n      0xffffffffffffffffffffffffffffffffffffffff\n      and\n        /* \"contracts/Lottery.sol\":1040:1078  winner.transfer(address(this).balance) */\n      0x08fc\n        /* \"contracts/Lottery.sol\":1056:1077  address(this).balance */\n      selfbalance\n        /* \"contracts/Lottery.sol\":1040:1078  winner.transfer(address(this).balance) */\n      swap1\n      dup2\n      iszero\n      mul\n      swap1\n      mload(0x40)\n      0x00\n      mload(0x40)\n      dup1\n      dup4\n      sub\n      dup2\n      dup6\n      dup9\n      dup9\n      call\n      swap4\n      pop\n      pop\n      pop\n      pop\n      iszero\n      dup1\n      iszero\n      tag_48\n      jumpi\n      returndatasize\n      0x00\n      dup1\n      returndatacopy\n      revert(0x00, returndatasize)\n    tag_48:\n      pop\n        /* \"contracts/Lottery.sol\":1122:1123  0 */\n      0x00\n        /* \"contracts/Lottery.sol\":1098:1124  new address payable [] (0) */\n      0xffffffffffffffff\n      dup2\n      gt\n      iszero\n      tag_49\n      jumpi\n      tag_50\n      tag_51\n      jump\t// in\n    tag_50:\n    tag_49:\n      mload(0x40)\n      swap1\n      dup1\n      dup3\n      mstore\n      dup1\n      0x20\n      mul\n      0x20\n      add\n      dup3\n      add\n      0x40\n      mstore\n      dup1\n      iszero\n      tag_52\n      jumpi\n      dup2\n      0x20\n      add\n      0x20\n      dup3\n      mul\n      dup1\n      calldatasize\n      dup4\n      calldatacopy\n      dup1\n      dup3\n      add\n      swap2\n      pop\n      pop\n      swap1\n      pop\n    tag_52:\n      pop\n        /* \"contracts/Lottery.sol\":1088:1095  players */\n      0x00\n        /* \"contracts/Lottery.sol\":1088:1124  players = new address payable [] (0) */\n      swap1\n      dup1\n      mload\n      swap1\n      0x20\n      add\n      swap1\n      tag_53\n      swap3\n      swap2\n      swap1\n      tag_54\n      jump\t// in\n    tag_53:\n      pop\n        /* \"contracts/Lottery.sol\":1156:1163  players */\n      0x00\n        /* \"contracts/Lottery.sol\":1177:1184  manager */\n      0x01\n      0x00\n      swap1\n      sload\n      swap1\n      0x0100\n      exp\n      swap1\n      div\n      0xffffffffffffffffffffffffffffffffffffffff\n      and\n        /* \"contracts/Lottery.sol\":1156:1186  players.push(payable(manager)) */\n      swap1\n      dup1\n      0x01\n      dup2\n      sload\n      add\n      dup1\n      dup3\n      sstore\n      dup1\n      swap2\n      pop\n      pop\n      0x01\n      swap1\n      sub\n      swap1\n      0x00\n      mstore\n      keccak256(0x00, 0x20)\n      add\n      0x00\n      swap1\n      swap2\n      swap1\n      swap2\n      swap1\n      swap2\n      0x0100\n      exp\n      dup2\n      sload\n      dup2\n      0xffffffffffffffffffffffffffffffffffffffff\n      mul\n      not\n      and\n      swap1\n      dup4\n      0xffffffffffffffffffffffffffffffffffffffff\n      and\n      mul\n      or\n      swap1\n      sstore\n      pop\n        /* \"contracts/Lottery.sol\":860:1193  {... */\n      pop\n      pop\n      pop\n        /* \"contracts/Lottery.sol\":831:1193  function pickWinner() public {... */\n      jump\t// out\n        /* \"contracts/Lottery.sol\":92:124  address payable[] public players */\n    tag_31:\n      0x00\n      dup2\n      dup2\n      sload\n      dup2\n      lt\n      tag_56\n      jumpi\n      0x00\n      dup1\n      revert\n    tag_56:\n      swap1\n      0x00\n      mstore\n      keccak256(0x00, 0x20)\n      add\n      0x00\n      swap2\n      pop\n      sload\n      swap1\n      0x0100\n      exp\n      swap1\n      div\n      0xffffffffffffffffffffffffffffffffffffffff\n      and\n      dup2\n      jump\t// out\n        /* \"contracts/Lottery.sol\":671:825  function random() internal view returns (uint){... */\n    tag_40:\n        /* \"contracts/Lottery.sol\":712:716  uint */\n      0x00\n        /* \"contracts/Lottery.sol\":766:782  block.difficulty */\n      difficulty\n        /* \"contracts/Lottery.sol\":784:799  block.timestamp */\n      timestamp\n        /* \"contracts/Lottery.sol\":801:808  players */\n      0x00\n        /* \"contracts/Lottery.sol\":801:815  players.length */\n      dup1\n      sload\n      swap1\n      pop\n        /* \"contracts/Lottery.sol\":749:816  abi.encodePacked(block.difficulty, block.timestamp, players.length) */\n      add(0x20, mload(0x40))\n      tag_59\n      swap4\n      swap3\n      swap2\n      swap1\n      tag_60\n      jump\t// in\n    tag_59:\n      mload(0x40)\n      0x20\n      dup2\n      dup4\n      sub\n      sub\n      dup2\n      mstore\n      swap1\n      0x40\n      mstore\n        /* \"contracts/Lottery.sol\":739:817  keccak256(abi.encodePacked(block.difficulty, block.timestamp, players.length)) */\n      dup1\n      mload\n      swap1\n      0x20\n      add\n      keccak256\n        /* \"contracts/Lottery.sol\":734:818  uint(keccak256(abi.encodePacked(block.difficulty, block.timestamp, players.length))) */\n      0x00\n      shr\n        /* \"contracts/Lottery.sol\":727:818  return uint(keccak256(abi.encodePacked(block.difficulty, block.timestamp, players.length))) */\n      swap1\n      pop\n        /* \"contracts/Lottery.sol\":671:825  function random() internal view returns (uint){... */\n      swap1\n      jump\t// out\n    tag_54:\n      dup3\n      dup1\n      sload\n      dup3\n      dup3\n      sstore\n      swap1\n      0x00\n      mstore\n      keccak256(0x00, 0x20)\n      swap1\n      dup2\n      add\n      swap3\n      dup3\n      iszero\n      tag_61\n      jumpi\n      swap2\n      0x20\n      mul\n      dup3\n      add\n    tag_62:\n      dup3\n      dup2\n      gt\n      iszero\n      tag_63\n      jumpi\n      dup3\n      mload\n      dup3\n      exp(0x0100, 0x00)\n      dup2\n      sload\n      dup2\n      0xffffffffffffffffffffffffffffffffffffffff\n      mul\n      not\n      and\n      swap1\n      dup4\n      0xffffffffffffffffffffffffffffffffffffffff\n      and\n      mul\n      or\n      swap1\n      sstore\n      pop\n      swap2\n      0x20\n      add\n      swap2\n      swap1\n      0x01\n      add\n      swap1\n      jump(tag_62)\n    tag_63:\n    tag_61:\n      pop\n      swap1\n      pop\n      tag_64\n      swap2\n      swap1\n      tag_65\n      jump\t// in\n    tag_64:\n      pop\n      swap1\n      jump\t// out\n    tag_65:\n    tag_66:\n      dup1\n      dup3\n      gt\n      iszero\n      tag_67\n      jumpi\n      0x00\n      dup2\n      0x00\n      swap1\n      sstore\n      pop\n      0x01\n      add\n      jump(tag_66)\n    tag_67:\n      pop\n      swap1\n      jump\t// out\n        /* \"#utility.yul\":7:146   */\n    tag_69:\n        /* \"#utility.yul\":53:58   */\n      0x00\n        /* \"#utility.yul\":91:97   */\n      dup2\n        /* \"#utility.yul\":78:98   */\n      calldataload\n        /* \"#utility.yul\":69:98   */\n      swap1\n      pop\n        /* \"#utility.yul\":107:140   */\n      tag_71\n        /* \"#utility.yul\":134:139   */\n      dup2\n        /* \"#utility.yul\":107:140   */\n      tag_72\n      jump\t// in\n    tag_71:\n        /* \"#utility.yul\":7:146   */\n      swap3\n      swap2\n      pop\n      pop\n      jump\t// out\n        /* \"#utility.yul\":152:481   */\n    tag_30:\n        /* \"#utility.yul\":211:217   */\n      0x00\n        /* \"#utility.yul\":260:262   */\n      0x20\n        /* \"#utility.yul\":248:257   */\n      dup3\n        /* \"#utility.yul\":239:246   */\n      dup5\n        /* \"#utility.yul\":235:258   */\n      sub\n        /* \"#utility.yul\":231:263   */\n      slt\n        /* \"#utility.yul\":228:347   */\n      iszero\n      tag_74\n      jumpi\n        /* \"#utility.yul\":266:345   */\n      tag_75\n      tag_76\n      jump\t// in\n    tag_75:\n        /* \"#utility.yul\":228:347   */\n    tag_74:\n        /* \"#utility.yul\":386:387   */\n      0x00\n        /* \"#utility.yul\":411:464   */\n      tag_77\n        /* \"#utility.yul\":456:463   */\n      dup5\n        /* \"#utility.yul\":447:453   */\n      dup3\n        /* \"#utility.yul\":436:445   */\n      dup6\n        /* \"#utility.yul\":432:454   */\n      add\n        /* \"#utility.yul\":411:464   */\n      tag_69\n      jump\t// in\n    tag_77:\n        /* \"#utility.yul\":401:464   */\n      swap2\n      pop\n        /* \"#utility.yul\":357:474   */\n      pop\n        /* \"#utility.yul\":152:481   */\n      swap3\n      swap2\n      pop\n      pop\n      jump\t// out\n        /* \"#utility.yul\":487:629   */\n    tag_78:\n        /* \"#utility.yul\":590:622   */\n      tag_80\n        /* \"#utility.yul\":616:621   */\n      dup2\n        /* \"#utility.yul\":590:622   */\n      tag_81\n      jump\t// in\n    tag_80:\n        /* \"#utility.yul\":585:588   */\n      dup3\n        /* \"#utility.yul\":578:623   */\n      mstore\n        /* \"#utility.yul\":487:629   */\n      pop\n      pop\n      jump\t// out\n        /* \"#utility.yul\":635:753   */\n    tag_82:\n        /* \"#utility.yul\":722:746   */\n      tag_84\n        /* \"#utility.yul\":740:745   */\n      dup2\n        /* \"#utility.yul\":722:746   */\n      tag_85\n      jump\t// in\n    tag_84:\n        /* \"#utility.yul\":717:720   */\n      dup3\n        /* \"#utility.yul\":710:747   */\n      mstore\n        /* \"#utility.yul\":635:753   */\n      pop\n      pop\n      jump\t// out\n        /* \"#utility.yul\":759:1125   */\n    tag_86:\n        /* \"#utility.yul\":901:904   */\n      0x00\n        /* \"#utility.yul\":922:989   */\n      tag_88\n        /* \"#utility.yul\":986:988   */\n      0x35\n        /* \"#utility.yul\":981:984   */\n      dup4\n        /* \"#utility.yul\":922:989   */\n      tag_89\n      jump\t// in\n    tag_88:\n        /* \"#utility.yul\":915:989   */\n      swap2\n      pop\n        /* \"#utility.yul\":998:1091   */\n      tag_90\n        /* \"#utility.yul\":1087:1090   */\n      dup3\n        /* \"#utility.yul\":998:1091   */\n      tag_91\n      jump\t// in\n    tag_90:\n        /* \"#utility.yul\":1116:1118   */\n      0x40\n        /* \"#utility.yul\":1111:1114   */\n      dup3\n        /* \"#utility.yul\":1107:1119   */\n      add\n        /* \"#utility.yul\":1100:1119   */\n      swap1\n      pop\n        /* \"#utility.yul\":759:1125   */\n      swap2\n      swap1\n      pop\n      jump\t// out\n        /* \"#utility.yul\":1131:1249   */\n    tag_92:\n        /* \"#utility.yul\":1218:1242   */\n      tag_94\n        /* \"#utility.yul\":1236:1241   */\n      dup2\n        /* \"#utility.yul\":1218:1242   */\n      tag_95\n      jump\t// in\n    tag_94:\n        /* \"#utility.yul\":1213:1216   */\n      dup3\n        /* \"#utility.yul\":1206:1243   */\n      mstore\n        /* \"#utility.yul\":1131:1249   */\n      pop\n      pop\n      jump\t// out\n        /* \"#utility.yul\":1255:1412   */\n    tag_96:\n        /* \"#utility.yul\":1360:1405   */\n      tag_98\n        /* \"#utility.yul\":1380:1404   */\n      tag_99\n        /* \"#utility.yul\":1398:1403   */\n      dup3\n        /* \"#utility.yul\":1380:1404   */\n      tag_95\n      jump\t// in\n    tag_99:\n        /* \"#utility.yul\":1360:1405   */\n      tag_100\n      jump\t// in\n    tag_98:\n        /* \"#utility.yul\":1355:1358   */\n      dup3\n        /* \"#utility.yul\":1348:1406   */\n      mstore\n        /* \"#utility.yul\":1255:1412   */\n      pop\n      pop\n      jump\t// out\n        /* \"#utility.yul\":1418:1956   */\n    tag_60:\n        /* \"#utility.yul\":1586:1589   */\n      0x00\n        /* \"#utility.yul\":1601:1676   */\n      tag_102\n        /* \"#utility.yul\":1672:1675   */\n      dup3\n        /* \"#utility.yul\":1663:1669   */\n      dup7\n        /* \"#utility.yul\":1601:1676   */\n      tag_96\n      jump\t// in\n    tag_102:\n        /* \"#utility.yul\":1701:1703   */\n      0x20\n        /* \"#utility.yul\":1696:1699   */\n      dup3\n        /* \"#utility.yul\":1692:1704   */\n      add\n        /* \"#utility.yul\":1685:1704   */\n      swap2\n      pop\n        /* \"#utility.yul\":1714:1789   */\n      tag_103\n        /* \"#utility.yul\":1785:1788   */\n      dup3\n        /* \"#utility.yul\":1776:1782   */\n      dup6\n        /* \"#utility.yul\":1714:1789   */\n      tag_96\n      jump\t// in\n    tag_103:\n        /* \"#utility.yul\":1814:1816   */\n      0x20\n        /* \"#utility.yul\":1809:1812   */\n      dup3\n        /* \"#utility.yul\":1805:1817   */\n      add\n        /* \"#utility.yul\":1798:1817   */\n      swap2\n      pop\n        /* \"#utility.yul\":1827:1902   */\n      tag_104\n        /* \"#utility.yul\":1898:1901   */\n      dup3\n        /* \"#utility.yul\":1889:1895   */\n      dup5\n        /* \"#utility.yul\":1827:1902   */\n      tag_96\n      jump\t// in\n    tag_104:\n        /* \"#utility.yul\":1927:1929   */\n      0x20\n        /* \"#utility.yul\":1922:1925   */\n      dup3\n        /* \"#utility.yul\":1918:1930   */\n      add\n        /* \"#utility.yul\":1911:1930   */\n      swap2\n      pop\n        /* \"#utility.yul\":1947:1950   */\n      dup2\n        /* \"#utility.yul\":1940:1950   */\n      swap1\n      pop\n        /* \"#utility.yul\":1418:1956   */\n      swap5\n      swap4\n      pop\n      pop\n      pop\n      pop\n      jump\t// out\n        /* \"#utility.yul\":1962:2184   */\n    tag_23:\n        /* \"#utility.yul\":2055:2059   */\n      0x00\n        /* \"#utility.yul\":2093:2095   */\n      0x20\n        /* \"#utility.yul\":2082:2091   */\n      dup3\n        /* \"#utility.yul\":2078:2096   */\n      add\n        /* \"#utility.yul\":2070:2096   */\n      swap1\n      pop\n        /* \"#utility.yul\":2106:2177   */\n      tag_106\n        /* \"#utility.yul\":2174:2175   */\n      0x00\n        /* \"#utility.yul\":2163:2172   */\n      dup4\n        /* \"#utility.yul\":2159:2176   */\n      add\n        /* \"#utility.yul\":2150:2156   */\n      dup5\n        /* \"#utility.yul\":2106:2177   */\n      tag_82\n      jump\t// in\n    tag_106:\n        /* \"#utility.yul\":1962:2184   */\n      swap3\n      swap2\n      pop\n      pop\n      jump\t// out\n        /* \"#utility.yul\":2190:2444   */\n    tag_33:\n        /* \"#utility.yul\":2299:2303   */\n      0x00\n        /* \"#utility.yul\":2337:2339   */\n      0x20\n        /* \"#utility.yul\":2326:2335   */\n      dup3\n        /* \"#utility.yul\":2322:2340   */\n      add\n        /* \"#utility.yul\":2314:2340   */\n      swap1\n      pop\n        /* \"#utility.yul\":2350:2437   */\n      tag_108\n        /* \"#utility.yul\":2434:2435   */\n      0x00\n        /* \"#utility.yul\":2423:2432   */\n      dup4\n        /* \"#utility.yul\":2419:2436   */\n      add\n        /* \"#utility.yul\":2410:2416   */\n      dup5\n        /* \"#utility.yul\":2350:2437   */\n      tag_78\n      jump\t// in\n    tag_108:\n        /* \"#utility.yul\":2190:2444   */\n      swap3\n      swap2\n      pop\n      pop\n      jump\t// out\n        /* \"#utility.yul\":2450:2869   */\n    tag_12:\n        /* \"#utility.yul\":2616:2620   */\n      0x00\n        /* \"#utility.yul\":2654:2656   */\n      0x20\n        /* \"#utility.yul\":2643:2652   */\n      dup3\n        /* \"#utility.yul\":2639:2657   */\n      add\n        /* \"#utility.yul\":2631:2657   */\n      swap1\n      pop\n        /* \"#utility.yul\":2703:2712   */\n      dup2\n        /* \"#utility.yul\":2697:2701   */\n      dup2\n        /* \"#utility.yul\":2693:2713   */\n      sub\n        /* \"#utility.yul\":2689:2690   */\n      0x00\n        /* \"#utility.yul\":2678:2687   */\n      dup4\n        /* \"#utility.yul\":2674:2691   */\n      add\n        /* \"#utility.yul\":2667:2714   */\n      mstore\n        /* \"#utility.yul\":2731:2862   */\n      tag_110\n        /* \"#utility.yul\":2857:2861   */\n      dup2\n        /* \"#utility.yul\":2731:2862   */\n      tag_86\n      jump\t// in\n    tag_110:\n        /* \"#utility.yul\":2723:2862   */\n      swap1\n      pop\n        /* \"#utility.yul\":2450:2869   */\n      swap2\n      swap1\n      pop\n      jump\t// out\n        /* \"#utility.yul\":2875:3097   */\n    tag_18:\n        /* \"#utility.yul\":2968:2972   */\n      0x00\n        /* \"#utility.yul\":3006:3008   */\n      0x20\n        /* \"#utility.yul\":2995:3004   */\n      dup3\n        /* \"#utility.yul\":2991:3009   */\n      add\n        /* \"#utility.yul\":2983:3009   */\n      swap1\n      pop\n        /* \"#utility.yul\":3019:3090   */\n      tag_112\n        /* \"#utility.yul\":3087:3088   */\n      0x00\n        /* \"#utility.yul\":3076:3085   */\n      dup4\n        /* \"#utility.yul\":3072:3089   */\n      add\n        /* \"#utility.yul\":3063:3069   */\n      dup5\n        /* \"#utility.yul\":3019:3090   */\n      tag_92\n      jump\t// in\n    tag_112:\n        /* \"#utility.yul\":2875:3097   */\n      swap3\n      swap2\n      pop\n      pop\n      jump\t// out\n        /* \"#utility.yul\":3184:3353   */\n    tag_89:\n        /* \"#utility.yul\":3268:3279   */\n      0x00\n        /* \"#utility.yul\":3302:3308   */\n      dup3\n        /* \"#utility.yul\":3297:3300   */\n      dup3\n        /* \"#utility.yul\":3290:3309   */\n      mstore\n        /* \"#utility.yul\":3342:3346   */\n      0x20\n        /* \"#utility.yul\":3337:3340   */\n      dup3\n        /* \"#utility.yul\":3333:3347   */\n      add\n        /* \"#utility.yul\":3318:3347   */\n      swap1\n      pop\n        /* \"#utility.yul\":3184:3353   */\n      swap3\n      swap2\n      pop\n      pop\n      jump\t// out\n        /* \"#utility.yul\":3359:3455   */\n    tag_85:\n        /* \"#utility.yul\":3396:3403   */\n      0x00\n        /* \"#utility.yul\":3425:3449   */\n      tag_117\n        /* \"#utility.yul\":3443:3448   */\n      dup3\n        /* \"#utility.yul\":3425:3449   */\n      tag_118\n      jump\t// in\n    tag_117:\n        /* \"#utility.yul\":3414:3449   */\n      swap1\n      pop\n        /* \"#utility.yul\":3359:3455   */\n      swap2\n      swap1\n      pop\n      jump\t// out\n        /* \"#utility.yul\":3461:3565   */\n    tag_81:\n        /* \"#utility.yul\":3506:3513   */\n      0x00\n        /* \"#utility.yul\":3535:3559   */\n      tag_120\n        /* \"#utility.yul\":3553:3558   */\n      dup3\n        /* \"#utility.yul\":3535:3559   */\n      tag_118\n      jump\t// in\n    tag_120:\n        /* \"#utility.yul\":3524:3559   */\n      swap1\n      pop\n        /* \"#utility.yul\":3461:3565   */\n      swap2\n      swap1\n      pop\n      jump\t// out\n        /* \"#utility.yul\":3571:3697   */\n    tag_118:\n        /* \"#utility.yul\":3608:3615   */\n      0x00\n        /* \"#utility.yul\":3648:3690   */\n      0xffffffffffffffffffffffffffffffffffffffff\n        /* \"#utility.yul\":3641:3646   */\n      dup3\n        /* \"#utility.yul\":3637:3691   */\n      and\n        /* \"#utility.yul\":3626:3691   */\n      swap1\n      pop\n        /* \"#utility.yul\":3571:3697   */\n      swap2\n      swap1\n      pop\n      jump\t// out\n        /* \"#utility.yul\":3703:3780   */\n    tag_95:\n        /* \"#utility.yul\":3740:3747   */\n      0x00\n        /* \"#utility.yul\":3769:3774   */\n      dup2\n        /* \"#utility.yul\":3758:3774   */\n      swap1\n      pop\n        /* \"#utility.yul\":3703:3780   */\n      swap2\n      swap1\n      pop\n      jump\t// out\n        /* \"#utility.yul\":3786:3865   */\n    tag_100:\n        /* \"#utility.yul\":3825:3832   */\n      0x00\n        /* \"#utility.yul\":3854:3859   */\n      dup2\n        /* \"#utility.yul\":3843:3859   */\n      swap1\n      pop\n        /* \"#utility.yul\":3786:3865   */\n      swap2\n      swap1\n      pop\n      jump\t// out\n        /* \"#utility.yul\":3871:4047   */\n    tag_42:\n        /* \"#utility.yul\":3903:3904   */\n      0x00\n        /* \"#utility.yul\":3920:3940   */\n      tag_125\n        /* \"#utility.yul\":3938:3939   */\n      dup3\n        /* \"#utility.yul\":3920:3940   */\n      tag_95\n      jump\t// in\n    tag_125:\n        /* \"#utility.yul\":3915:3940   */\n      swap2\n      pop\n        /* \"#utility.yul\":3954:3974   */\n      tag_126\n        /* \"#utility.yul\":3972:3973   */\n      dup4\n        /* \"#utility.yul\":3954:3974   */\n      tag_95\n      jump\t// in\n    tag_126:\n        /* \"#utility.yul\":3949:3974   */\n      swap3\n      pop\n        /* \"#utility.yul\":3993:3994   */\n      dup3\n        /* \"#utility.yul\":3983:4018   */\n      tag_127\n      jumpi\n        /* \"#utility.yul\":3998:4016   */\n      tag_128\n      tag_129\n      jump\t// in\n    tag_128:\n        /* \"#utility.yul\":3983:4018   */\n    tag_127:\n        /* \"#utility.yul\":4039:4040   */\n      dup3\n        /* \"#utility.yul\":4036:4037   */\n      dup3\n        /* \"#utility.yul\":4032:4041   */\n      mod\n        /* \"#utility.yul\":4027:4041   */\n      swap1\n      pop\n        /* \"#utility.yul\":3871:4047   */\n      swap3\n      swap2\n      pop\n      pop\n      jump\t// out\n        /* \"#utility.yul\":4053:4233   */\n    tag_129:\n        /* \"#utility.yul\":4101:4178   */\n      0x4e487b7100000000000000000000000000000000000000000000000000000000\n        /* \"#utility.yul\":4098:4099   */\n      0x00\n        /* \"#utility.yul\":4091:4179   */\n      mstore\n        /* \"#utility.yul\":4198:4202   */\n      0x12\n        /* \"#utility.yul\":4195:4196   */\n      0x04\n        /* \"#utility.yul\":4188:4203   */\n      mstore\n        /* \"#utility.yul\":4222:4226   */\n      0x24\n        /* \"#utility.yul\":4219:4220   */\n      0x00\n        /* \"#utility.yul\":4212:4227   */\n      revert\n        /* \"#utility.yul\":4239:4419   */\n    tag_45:\n        /* \"#utility.yul\":4287:4364   */\n      0x4e487b7100000000000000000000000000000000000000000000000000000000\n        /* \"#utility.yul\":4284:4285   */\n      0x00\n        /* \"#utility.yul\":4277:4365   */\n      mstore\n        /* \"#utility.yul\":4384:4388   */\n      0x32\n        /* \"#utility.yul\":4381:4382   */\n      0x04\n        /* \"#utility.yul\":4374:4389   */\n      mstore\n        /* \"#utility.yul\":4408:4412   */\n      0x24\n        /* \"#utility.yul\":4405:4406   */\n      0x00\n        /* \"#utility.yul\":4398:4413   */\n      revert\n        /* \"#utility.yul\":4425:4605   */\n    tag_51:\n        /* \"#utility.yul\":4473:4550   */\n      0x4e487b7100000000000000000000000000000000000000000000000000000000\n        /* \"#utility.yul\":4470:4471   */\n      0x00\n        /* \"#utility.yul\":4463:4551   */\n      mstore\n        /* \"#utility.yul\":4570:4574   */\n      0x41\n        /* \"#utility.yul\":4567:4568   */\n      0x04\n        /* \"#utility.yul\":4560:4575   */\n      mstore\n        /* \"#utility.yul\":4594:4598   */\n      0x24\n        /* \"#utility.yul\":4591:4592   */\n      0x00\n        /* \"#utility.yul\":4584:4599   */\n      revert\n        /* \"#utility.yul\":4734:4851   */\n    tag_76:\n        /* \"#utility.yul\":4843:4844   */\n      0x00\n        /* \"#utility.yul\":4840:4841   */\n      dup1\n        /* \"#utility.yul\":4833:4845   */\n      revert\n        /* \"#utility.yul\":4857:5097   */\n    tag_91:\n        /* \"#utility.yul\":4997:5031   */\n      0x5468697320636f6e7472616374206f6e6c792061636365707473207472616e73\n        /* \"#utility.yul\":4993:4994   */\n      0x00\n        /* \"#utility.yul\":4985:4991   */\n      dup3\n        /* \"#utility.yul\":4981:4995   */\n      add\n        /* \"#utility.yul\":4974:5032   */\n      mstore\n        /* \"#utility.yul\":5066:5089   */\n      0x616374696f6e73206f6620302e30312065746865720000000000000000000000\n        /* \"#utility.yul\":5061:5063   */\n      0x20\n        /* \"#utility.yul\":5053:5059   */\n      dup3\n        /* \"#utility.yul\":5049:5064   */\n      add\n        /* \"#utility.yul\":5042:5090   */\n      mstore\n        /* \"#utility.yul\":4857:5097   */\n      pop\n      jump\t// out\n        /* \"#utility.yul\":5103:5225   */\n    tag_72:\n        /* \"#utility.yul\":5176:5200   */\n      tag_138\n        /* \"#utility.yul\":5194:5199   */\n      dup2\n        /* \"#utility.yul\":5176:5200   */\n      tag_95\n      jump\t// in\n    tag_138:\n        /* \"#utility.yul\":5169:5174   */\n      dup2\n        /* \"#utility.yul\":5166:5201   */\n      eq\n        /* \"#utility.yul\":5156:5219   */\n      tag_139\n      jumpi\n        /* \"#utility.yul\":5215:5216   */\n      0x00\n        /* \"#utility.yul\":5212:5213   */\n      dup1\n        /* \"#utility.yul\":5205:5217   */\n      revert\n        /* \"#utility.yul\":5156:5219   */\n    tag_139:\n        /* \"#utility.yul\":5103:5225   */\n      pop\n      jump\t// out\n\n    auxdata: 0xa264697066735822122035d9d130928c4e046307ce97af632dfb949c4919f18945c6e50e8e85b29677ba64736f6c63430008070033\n}\n",
				"bytecode": {
					"linkReferences": {},
					"object": "608060405234801561001057600080fd5b5033600160006101000a81548173ffffffffffffffffffffffffffffffffffffffff021916908373ffffffffffffffffffffffffffffffffffffffff1602179055506000600160009054906101000a900473ffffffffffffffffffffffffffffffffffffffff169080600181540180825580915050600190039060005260206000200160009091909190916101000a81548173ffffffffffffffffffffffffffffffffffffffff021916908373ffffffffffffffffffffffffffffffffffffffff16021790555061086d806100e66000396000f3fe6080604052600436106100435760003560e01c806312065fe014610156578063481c6a75146101815780635d495aea146101ac578063f71d96cb146101c357610151565b3661015157600160009054906101000a900473ffffffffffffffffffffffffffffffffffffffff1673ffffffffffffffffffffffffffffffffffffffff163373ffffffffffffffffffffffffffffffffffffffff1614156100a357600080fd5b662386f26fc1000034146100ec576040517f08c379a00000000000000000000000000000000000000000000000000000000081526004016100e39061066a565b60405180910390fd5b6000339080600181540180825580915050600190039060005260206000200160009091909190916101000a81548173ffffffffffffffffffffffffffffffffffffffff021916908373ffffffffffffffffffffffffffffffffffffffff160217905550005b600080fd5b34801561016257600080fd5b5061016b610200565b604051610178919061068a565b60405180910390f35b34801561018d57600080fd5b50610196610262565b6040516101a39190610634565b60405180910390f35b3480156101b857600080fd5b506101c1610288565b005b3480156101cf57600080fd5b506101ea60048036038101906101e59190610563565b61042e565b6040516101f7919061064f565b60405180910390f35b6000600160009054906101000a900473ffffffffffffffffffffffffffffffffffffffff1673ffffffffffffffffffffffffffffffffffffffff163373ffffffffffffffffffffffffffffffffffffffff161461025c57600080fd5b47905090565b600160009054906101000a900473ffffffffffffffffffffffffffffffffffffffff1681565b600a600080549050101561029b57600080fd5b60006102a561046d565b905060008080549050826102b9919061070e565b905060008082815481106102d0576102cf61076e565b5b9060005260206000200160009054906101000a900473ffffffffffffffffffffffffffffffffffffffff1690508073ffffffffffffffffffffffffffffffffffffffff166108fc479081150290604051600060405180830381858888f19350505050158015610343573d6000803e3d6000fd5b50600067ffffffffffffffff81111561035f5761035e61079d565b5b60405190808252806020026020018201604052801561038d5781602001602082028036833780820191505090505b50600090805190602001906103a39291906104a7565b506000600160009054906101000a900473ffffffffffffffffffffffffffffffffffffffff169080600181540180825580915050600190039060005260206000200160009091909190916101000a81548173ffffffffffffffffffffffffffffffffffffffff021916908373ffffffffffffffffffffffffffffffffffffffff160217905550505050565b6000818154811061043e57600080fd5b906000526020600020016000915054906101000a900473ffffffffffffffffffffffffffffffffffffffff1681565b60004442600080549050604051602001610489939291906105f7565b6040516020818303038152906040528051906020012060001c905090565b828054828255906000526020600020908101928215610520579160200282015b8281111561051f5782518260006101000a81548173ffffffffffffffffffffffffffffffffffffffff021916908373ffffffffffffffffffffffffffffffffffffffff160217905550916020019190600101906104c7565b5b50905061052d9190610531565b5090565b5b8082111561054a576000816000905550600101610532565b5090565b60008135905061055d81610820565b92915050565b600060208284031215610579576105786107cc565b5b60006105878482850161054e565b91505092915050565b610599816106c8565b82525050565b6105a8816106b6565b82525050565b60006105bb6035836106a5565b91506105c6826107d1565b604082019050919050565b6105da816106fa565b82525050565b6105f16105ec826106fa565b610704565b82525050565b600061060382866105e0565b60208201915061061382856105e0565b60208201915061062382846105e0565b602082019150819050949350505050565b6000602082019050610649600083018461059f565b92915050565b60006020820190506106646000830184610590565b92915050565b60006020820190508181036000830152610683816105ae565b9050919050565b600060208201905061069f60008301846105d1565b92915050565b600082825260208201905092915050565b60006106c1826106da565b9050919050565b60006106d3826106da565b9050919050565b600073ffffffffffffffffffffffffffffffffffffffff82169050919050565b6000819050919050565b6000819050919050565b6000610719826106fa565b9150610724836106fa565b9250826107345761073361073f565b5b828206905092915050565b7f4e487b7100000000000000000000000000000000000000000000000000000000600052601260045260246000fd5b7f4e487b7100000000000000000000000000000000000000000000000000000000600052603260045260246000fd5b7f4e487b7100000000000000000000000000000000000000000000000000000000600052604160045260246000fd5b600080fd5b7f5468697320636f6e7472616374206f6e6c792061636365707473207472616e7360008201527f616374696f6e73206f6620302e30312065746865720000000000000000000000602082015250565b610829816106fa565b811461083457600080fd5b5056fea264697066735822122035d9d130928c4e046307ce97af632dfb949c4919f18945c6e50e8e85b29677ba64736f6c63430008070033",
					"opcodes": "PUSH1 0x80 PUSH1 0x40 MSTORE CALLVALUE DUP1 ISZERO PUSH2 0x10 JUMPI PUSH1 0x0 DUP1 REVERT JUMPDEST POP CALLER PUSH1 0x1 PUSH1 0x0 PUSH2 0x100 EXP DUP2 SLOAD DUP2 PUSH20 0xFFFFFFFFFFFFFFFFFFFFFFFFFFFFFFFFFFFFFFFF MUL NOT AND SWAP1 DUP4 PUSH20 0xFFFFFFFFFFFFFFFFFFFFFFFFFFFFFFFFFFFFFFFF AND MUL OR SWAP1 SSTORE POP PUSH1 0x0 PUSH1 0x1 PUSH1 0x0 SWAP1 SLOAD SWAP1 PUSH2 0x100 EXP SWAP1 DIV PUSH20 0xFFFFFFFFFFFFFFFFFFFFFFFFFFFFFFFFFFFFFFFF AND SWAP1 DUP1 PUSH1 0x1 DUP2 SLOAD ADD DUP1 DUP3 SSTORE DUP1 SWAP2 POP POP PUSH1 0x1 SWAP1 SUB SWAP1 PUSH1 0x0 MSTORE PUSH1 0x20 PUSH1 0x0 KECCAK256 ADD PUSH1 0x0 SWAP1 SWAP2 SWAP1 SWAP2 SWAP1 SWAP2 PUSH2 0x100 EXP DUP2 SLOAD DUP2 PUSH20 0xFFFFFFFFFFFFFFFFFFFFFFFFFFFFFFFFFFFFFFFF MUL NOT AND SWAP1 DUP4 PUSH20 0xFFFFFFFFFFFFFFFFFFFFFFFFFFFFFFFFFFFFFFFF AND MUL OR SWAP1 SSTORE POP PUSH2 0x86D DUP1 PUSH2 0xE6 PUSH1 0x0 CODECOPY PUSH1 0x0 RETURN INVALID PUSH1 0x80 PUSH1 0x40 MSTORE PUSH1 0x4 CALLDATASIZE LT PUSH2 0x43 JUMPI PUSH1 0x0 CALLDATALOAD PUSH1 0xE0 SHR DUP1 PUSH4 0x12065FE0 EQ PUSH2 0x156 JUMPI DUP1 PUSH4 0x481C6A75 EQ PUSH2 0x181 JUMPI DUP1 PUSH4 0x5D495AEA EQ PUSH2 0x1AC JUMPI DUP1 PUSH4 0xF71D96CB EQ PUSH2 0x1C3 JUMPI PUSH2 0x151 JUMP JUMPDEST CALLDATASIZE PUSH2 0x151 JUMPI PUSH1 0x1 PUSH1 0x0 SWAP1 SLOAD SWAP1 PUSH2 0x100 EXP SWAP1 DIV PUSH20 0xFFFFFFFFFFFFFFFFFFFFFFFFFFFFFFFFFFFFFFFF AND PUSH20 0xFFFFFFFFFFFFFFFFFFFFFFFFFFFFFFFFFFFFFFFF AND CALLER PUSH20 0xFFFFFFFFFFFFFFFFFFFFFFFFFFFFFFFFFFFFFFFF AND EQ ISZERO PUSH2 0xA3 JUMPI PUSH1 0x0 DUP1 REVERT JUMPDEST PUSH7 0x2386F26FC10000 CALLVALUE EQ PUSH2 0xEC JUMPI PUSH1 0x40 MLOAD PUSH32 0x8C379A000000000000000000000000000000000000000000000000000000000 DUP2 MSTORE PUSH1 0x4 ADD PUSH2 0xE3 SWAP1 PUSH2 0x66A JUMP JUMPDEST PUSH1 0x40 MLOAD DUP1 SWAP2 SUB SWAP1 REVERT JUMPDEST PUSH1 0x0 CALLER SWAP1 DUP1 PUSH1 0x1 DUP2 SLOAD ADD DUP1 DUP3 SSTORE DUP1 SWAP2 POP POP PUSH1 0x1 SWAP1 SUB SWAP1 PUSH1 0x0 MSTORE PUSH1 0x20 PUSH1 0x0 KECCAK256 ADD PUSH1 0x0 SWAP1 SWAP2 SWAP1 SWAP2 SWAP1 SWAP2 PUSH2 0x100 EXP DUP2 SLOAD DUP2 PUSH20 0xFFFFFFFFFFFFFFFFFFFFFFFFFFFFFFFFFFFFFFFF MUL NOT AND SWAP1 DUP4 PUSH20 0xFFFFFFFFFFFFFFFFFFFFFFFFFFFFFFFFFFFFFFFF AND MUL OR SWAP1 SSTORE POP STOP JUMPDEST PUSH1 0x0 DUP1 REVERT JUMPDEST CALLVALUE DUP1 ISZERO PUSH2 0x162 JUMPI PUSH1 0x0 DUP1 REVERT JUMPDEST POP PUSH2 0x16B PUSH2 0x200 JUMP JUMPDEST PUSH1 0x40 MLOAD PUSH2 0x178 SWAP2 SWAP1 PUSH2 0x68A JUMP JUMPDEST PUSH1 0x40 MLOAD DUP1 SWAP2 SUB SWAP1 RETURN JUMPDEST CALLVALUE DUP1 ISZERO PUSH2 0x18D JUMPI PUSH1 0x0 DUP1 REVERT JUMPDEST POP PUSH2 0x196 PUSH2 0x262 JUMP JUMPDEST PUSH1 0x40 MLOAD PUSH2 0x1A3 SWAP2 SWAP1 PUSH2 0x634 JUMP JUMPDEST PUSH1 0x40 MLOAD DUP1 SWAP2 SUB SWAP1 RETURN JUMPDEST CALLVALUE DUP1 ISZERO PUSH2 0x1B8 JUMPI PUSH1 0x0 DUP1 REVERT JUMPDEST POP PUSH2 0x1C1 PUSH2 0x288 JUMP JUMPDEST STOP JUMPDEST CALLVALUE DUP1 ISZERO PUSH2 0x1CF JUMPI PUSH1 0x0 DUP1 REVERT JUMPDEST POP PUSH2 0x1EA PUSH1 0x4 DUP1 CALLDATASIZE SUB DUP2 ADD SWAP1 PUSH2 0x1E5 SWAP2 SWAP1 PUSH2 0x563 JUMP JUMPDEST PUSH2 0x42E JUMP JUMPDEST PUSH1 0x40 MLOAD PUSH2 0x1F7 SWAP2 SWAP1 PUSH2 0x64F JUMP JUMPDEST PUSH1 0x40 MLOAD DUP1 SWAP2 SUB SWAP1 RETURN JUMPDEST PUSH1 0x0 PUSH1 0x1 PUSH1 0x0 SWAP1 SLOAD SWAP1 PUSH2 0x100 EXP SWAP1 DIV PUSH20 0xFFFFFFFFFFFFFFFFFFFFFFFFFFFFFFFFFFFFFFFF AND PUSH20 0xFFFFFFFFFFFFFFFFFFFFFFFFFFFFFFFFFFFFFFFF AND CALLER PUSH20 0xFFFFFFFFFFFFFFFFFFFFFFFFFFFFFFFFFFFFFFFF AND EQ PUSH2 0x25C JUMPI PUSH1 0x0 DUP1 REVERT JUMPDEST SELFBALANCE SWAP1 POP SWAP1 JUMP JUMPDEST PUSH1 0x1 PUSH1 0x0 SWAP1 SLOAD SWAP1 PUSH2 0x100 EXP SWAP1 DIV PUSH20 0xFFFFFFFFFFFFFFFFFFFFFFFFFFFFFFFFFFFFFFFF AND DUP2 JUMP JUMPDEST PUSH1 0xA PUSH1 0x0 DUP1 SLOAD SWAP1 POP LT ISZERO PUSH2 0x29B JUMPI PUSH1 0x0 DUP1 REVERT JUMPDEST PUSH1 0x0 PUSH2 0x2A5 PUSH2 0x46D JUMP JUMPDEST SWAP1 POP PUSH1 0x0 DUP1 DUP1 SLOAD SWAP1 POP DUP3 PUSH2 0x2B9 SWAP2 SWAP1 PUSH2 0x70E JUMP JUMPDEST SWAP1 POP PUSH1 0x0 DUP1 DUP3 DUP2 SLOAD DUP2 LT PUSH2 0x2D0 JUMPI PUSH2 0x2CF PUSH2 0x76E JUMP JUMPDEST JUMPDEST SWAP1 PUSH1 0x0 MSTORE PUSH1 0x20 PUSH1 0x0 KECCAK256 ADD PUSH1 0x0 SWAP1 SLOAD SWAP1 PUSH2 0x100 EXP SWAP1 DIV PUSH20 0xFFFFFFFFFFFFFFFFFFFFFFFFFFFFFFFFFFFFFFFF AND SWAP1 POP DUP1 PUSH20 0xFFFFFFFFFFFFFFFFFFFFFFFFFFFFFFFFFFFFFFFF AND PUSH2 0x8FC SELFBALANCE SWAP1 DUP2 ISZERO MUL SWAP1 PUSH1 0x40 MLOAD PUSH1 0x0 PUSH1 0x40 MLOAD DUP1 DUP4 SUB DUP2 DUP6 DUP9 DUP9 CALL SWAP4 POP POP POP POP ISZERO DUP1 ISZERO PUSH2 0x343 JUMPI RETURNDATASIZE PUSH1 0x0 DUP1 RETURNDATACOPY RETURNDATASIZE PUSH1 0x0 REVERT JUMPDEST POP PUSH1 0x0 PUSH8 0xFFFFFFFFFFFFFFFF DUP2 GT ISZERO PUSH2 0x35F JUMPI PUSH2 0x35E PUSH2 0x79D JUMP JUMPDEST JUMPDEST PUSH1 0x40 MLOAD SWAP1 DUP1 DUP3 MSTORE DUP1 PUSH1 0x20 MUL PUSH1 0x20 ADD DUP3 ADD PUSH1 0x40 MSTORE DUP1 ISZERO PUSH2 0x38D JUMPI DUP2 PUSH1 0x20 ADD PUSH1 0x20 DUP3 MUL DUP1 CALLDATASIZE DUP4 CALLDATACOPY DUP1 DUP3 ADD SWAP2 POP POP SWAP1 POP JUMPDEST POP PUSH1 0x0 SWAP1 DUP1 MLOAD SWAP1 PUSH1 0x20 ADD SWAP1 PUSH2 0x3A3 SWAP3 SWAP2 SWAP1 PUSH2 0x4A7 JUMP JUMPDEST POP PUSH1 0x0 PUSH1 0x1 PUSH1 0x0 SWAP1 SLOAD SWAP1 PUSH2 0x100 EXP SWAP1 DIV PUSH20 0xFFFFFFFFFFFFFFFFFFFFFFFFFFFFFFFFFFFFFFFF AND SWAP1 DUP1 PUSH1 0x1 DUP2 SLOAD ADD DUP1 DUP3 SSTORE DUP1 SWAP2 POP POP PUSH1 0x1 SWAP1 SUB SWAP1 PUSH1 0x0 MSTORE PUSH1 0x20 PUSH1 0x0 KECCAK256 ADD PUSH1 0x0 SWAP1 SWAP2 SWAP1 SWAP2 SWAP1 SWAP2 PUSH2 0x100 EXP DUP2 SLOAD DUP2 PUSH20 0xFFFFFFFFFFFFFFFFFFFFFFFFFFFFFFFFFFFFFFFF MUL NOT AND SWAP1 DUP4 PUSH20 0xFFFFFFFFFFFFFFFFFFFFFFFFFFFFFFFFFFFFFFFF AND MUL OR SWAP1 SSTORE POP POP POP POP JUMP JUMPDEST PUSH1 0x0 DUP2 DUP2 SLOAD DUP2 LT PUSH2 0x43E JUMPI PUSH1 0x0 DUP1 REVERT JUMPDEST SWAP1 PUSH1 0x0 MSTORE PUSH1 0x20 PUSH1 0x0 KECCAK256 ADD PUSH1 0x0 SWAP2 POP SLOAD SWAP1 PUSH2 0x100 EXP SWAP1 DIV PUSH20 0xFFFFFFFFFFFFFFFFFFFFFFFFFFFFFFFFFFFFFFFF AND DUP2 JUMP JUMPDEST PUSH1 0x0 DIFFICULTY TIMESTAMP PUSH1 0x0 DUP1 SLOAD SWAP1 POP PUSH1 0x40 MLOAD PUSH1 0x20 ADD PUSH2 0x489 SWAP4 SWAP3 SWAP2 SWAP1 PUSH2 0x5F7 JUMP JUMPDEST PUSH1 0x40 MLOAD PUSH1 0x20 DUP2 DUP4 SUB SUB DUP2 MSTORE SWAP1 PUSH1 0x40 MSTORE DUP1 MLOAD SWAP1 PUSH1 0x20 ADD KECCAK256 PUSH1 0x0 SHR SWAP1 POP SWAP1 JUMP JUMPDEST DUP3 DUP1 SLOAD DUP3 DUP3 SSTORE SWAP1 PUSH1 0x0 MSTORE PUSH1 0x20 PUSH1 0x0 KECCAK256 SWAP1 DUP2 ADD SWAP3 DUP3 ISZERO PUSH2 0x520 JUMPI SWAP2 PUSH1 0x20 MUL DUP3 ADD JUMPDEST DUP3 DUP2 GT ISZERO PUSH2 0x51F JUMPI DUP3 MLOAD DUP3 PUSH1 0x0 PUSH2 0x100 EXP DUP2 SLOAD DUP2 PUSH20 0xFFFFFFFFFFFFFFFFFFFFFFFFFFFFFFFFFFFFFFFF MUL NOT AND SWAP1 DUP4 PUSH20 0xFFFFFFFFFFFFFFFFFFFFFFFFFFFFFFFFFFFFFFFF AND MUL OR SWAP1 SSTORE POP SWAP2 PUSH1 0x20 ADD SWAP2 SWAP1 PUSH1 0x1 ADD SWAP1 PUSH2 0x4C7 JUMP JUMPDEST JUMPDEST POP SWAP1 POP PUSH2 0x52D SWAP2 SWAP1 PUSH2 0x531 JUMP JUMPDEST POP SWAP1 JUMP JUMPDEST JUMPDEST DUP1 DUP3 GT ISZERO PUSH2 0x54A JUMPI PUSH1 0x0 DUP2 PUSH1 0x0 SWAP1 SSTORE POP PUSH1 0x1 ADD PUSH2 0x532 JUMP JUMPDEST POP SWAP1 JUMP JUMPDEST PUSH1 0x0 DUP2 CALLDATALOAD SWAP1 POP PUSH2 0x55D DUP2 PUSH2 0x820 JUMP JUMPDEST SWAP3 SWAP2 POP POP JUMP JUMPDEST PUSH1 0x0 PUSH1 0x20 DUP3 DUP5 SUB SLT ISZERO PUSH2 0x579 JUMPI PUSH2 0x578 PUSH2 0x7CC JUMP JUMPDEST JUMPDEST PUSH1 0x0 PUSH2 0x587 DUP5 DUP3 DUP6 ADD PUSH2 0x54E JUMP JUMPDEST SWAP2 POP POP SWAP3 SWAP2 POP POP JUMP JUMPDEST PUSH2 0x599 DUP2 PUSH2 0x6C8 JUMP JUMPDEST DUP3 MSTORE POP POP JUMP JUMPDEST PUSH2 0x5A8 DUP2 PUSH2 0x6B6 JUMP JUMPDEST DUP3 MSTORE POP POP JUMP JUMPDEST PUSH1 0x0 PUSH2 0x5BB PUSH1 0x35 DUP4 PUSH2 0x6A5 JUMP JUMPDEST SWAP2 POP PUSH2 0x5C6 DUP3 PUSH2 0x7D1 JUMP JUMPDEST PUSH1 0x40 DUP3 ADD SWAP1 POP SWAP2 SWAP1 POP JUMP JUMPDEST PUSH2 0x5DA DUP2 PUSH2 0x6FA JUMP JUMPDEST DUP3 MSTORE POP POP JUMP JUMPDEST PUSH2 0x5F1 PUSH2 0x5EC DUP3 PUSH2 0x6FA JUMP JUMPDEST PUSH2 0x704 JUMP JUMPDEST DUP3 MSTORE POP POP JUMP JUMPDEST PUSH1 0x0 PUSH2 0x603 DUP3 DUP7 PUSH2 0x5E0 JUMP JUMPDEST PUSH1 0x20 DUP3 ADD SWAP2 POP PUSH2 0x613 DUP3 DUP6 PUSH2 0x5E0 JUMP JUMPDEST PUSH1 0x20 DUP3 ADD SWAP2 POP PUSH2 0x623 DUP3 DUP5 PUSH2 0x5E0 JUMP JUMPDEST PUSH1 0x20 DUP3 ADD SWAP2 POP DUP2 SWAP1 POP SWAP5 SWAP4 POP POP POP POP JUMP JUMPDEST PUSH1 0x0 PUSH1 0x20 DUP3 ADD SWAP1 POP PUSH2 0x649 PUSH1 0x0 DUP4 ADD DUP5 PUSH2 0x59F JUMP JUMPDEST SWAP3 SWAP2 POP POP JUMP JUMPDEST PUSH1 0x0 PUSH1 0x20 DUP3 ADD SWAP1 POP PUSH2 0x664 PUSH1 0x0 DUP4 ADD DUP5 PUSH2 0x590 JUMP JUMPDEST SWAP3 SWAP2 POP POP JUMP JUMPDEST PUSH1 0x0 PUSH1 0x20 DUP3 ADD SWAP1 POP DUP2 DUP2 SUB PUSH1 0x0 DUP4 ADD MSTORE PUSH2 0x683 DUP2 PUSH2 0x5AE JUMP JUMPDEST SWAP1 POP SWAP2 SWAP1 POP JUMP JUMPDEST PUSH1 0x0 PUSH1 0x20 DUP3 ADD SWAP1 POP PUSH2 0x69F PUSH1 0x0 DUP4 ADD DUP5 PUSH2 0x5D1 JUMP JUMPDEST SWAP3 SWAP2 POP POP JUMP JUMPDEST PUSH1 0x0 DUP3 DUP3 MSTORE PUSH1 0x20 DUP3 ADD SWAP1 POP SWAP3 SWAP2 POP POP JUMP JUMPDEST PUSH1 0x0 PUSH2 0x6C1 DUP3 PUSH2 0x6DA JUMP JUMPDEST SWAP1 POP SWAP2 SWAP1 POP JUMP JUMPDEST PUSH1 0x0 PUSH2 0x6D3 DUP3 PUSH2 0x6DA JUMP JUMPDEST SWAP1 POP SWAP2 SWAP1 POP JUMP JUMPDEST PUSH1 0x0 PUSH20 0xFFFFFFFFFFFFFFFFFFFFFFFFFFFFFFFFFFFFFFFF DUP3 AND SWAP1 POP SWAP2 SWAP1 POP JUMP JUMPDEST PUSH1 0x0 DUP2 SWAP1 POP SWAP2 SWAP1 POP JUMP JUMPDEST PUSH1 0x0 DUP2 SWAP1 POP SWAP2 SWAP1 POP JUMP JUMPDEST PUSH1 0x0 PUSH2 0x719 DUP3 PUSH2 0x6FA JUMP JUMPDEST SWAP2 POP PUSH2 0x724 DUP4 PUSH2 0x6FA JUMP JUMPDEST SWAP3 POP DUP3 PUSH2 0x734 JUMPI PUSH2 0x733 PUSH2 0x73F JUMP JUMPDEST JUMPDEST DUP3 DUP3 MOD SWAP1 POP SWAP3 SWAP2 POP POP JUMP JUMPDEST PUSH32 0x4E487B7100000000000000000000000000000000000000000000000000000000 PUSH1 0x0 MSTORE PUSH1 0x12 PUSH1 0x4 MSTORE PUSH1 0x24 PUSH1 0x0 REVERT JUMPDEST PUSH32 0x4E487B7100000000000000000000000000000000000000000000000000000000 PUSH1 0x0 MSTORE PUSH1 0x32 PUSH1 0x4 MSTORE PUSH1 0x24 PUSH1 0x0 REVERT JUMPDEST PUSH32 0x4E487B7100000000000000000000000000000000000000000000000000000000 PUSH1 0x0 MSTORE PUSH1 0x41 PUSH1 0x4 MSTORE PUSH1 0x24 PUSH1 0x0 REVERT JUMPDEST PUSH1 0x0 DUP1 REVERT JUMPDEST PUSH32 0x5468697320636F6E7472616374206F6E6C792061636365707473207472616E73 PUSH1 0x0 DUP3 ADD MSTORE PUSH32 0x616374696F6E73206F6620302E30312065746865720000000000000000000000 PUSH1 0x20 DUP3 ADD MSTORE POP JUMP JUMPDEST PUSH2 0x829 DUP2 PUSH2 0x6FA JUMP JUMPDEST DUP2 EQ PUSH2 0x834 JUMPI PUSH1 0x0 DUP1 REVERT JUMPDEST POP JUMP INVALID LOG2 PUSH5 0x6970667358 0x22 SLT KECCAK256 CALLDATALOAD 0xD9 0xD1 ADDRESS SWAP3 DUP13 0x4E DIV PUSH4 0x7CE97AF PUSH4 0x2DFB949C 0x49 NOT CALL DUP10 GASLIMIT 0xC6 0xE5 0xE DUP15 DUP6 0xB2 SWAP7 PUSH24 0xBA64736F6C63430008070033000000000000000000000000 "
				},
				"gasEstimates": {
					"creation": {
						"codeDepositCost": "431400",
						"executionCost": "75449",
						"totalCost": "506849"
					},
					"external": {
						"getBalance()": "2487",
						"manager()": "2514",
						"pickWinner()": "infinite",
						"players(uint256)": "5000"
					},
					"internal": {
						"random()": "infinite"
					}
				},
				"methodIdentifiers": {
					"getBalance()": "12065fe0",
					"manager()": "481c6a75",
					"pickWinner()": "5d495aea",
					"players(uint256)": "f71d96cb"
				}
			},
			"storageLayout": {
				"storage": [
					{
						"astId": 4,
						"contract": "contracts/Lottery.sol:Lottery",
						"label": "players",
						"offset": 0,
						"slot": "0",
						"type": "t_array(t_address_payable)dyn_storage"
					},
					{
						"astId": 6,
						"contract": "contracts/Lottery.sol:Lottery",
						"label": "manager",
						"offset": 0,
						"slot": "1",
						"type": "t_address"
					}
				],
				"types": {
					"t_address": {
						"encoding": "inplace",
						"label": "address",
						"numberOfBytes": "20"
					},
					"t_address_payable": {
						"encoding": "inplace",
						"label": "address payable",
						"numberOfBytes": "20"
					},
					"t_array(t_address_payable)dyn_storage": {
						"base": "t_address_payable",
						"encoding": "dynamic_array",
						"label": "address payable[]",
						"numberOfBytes": "32"
					}
				}
			},
			"userdoc": {
				"kind": "user",
				"methods": {},
				"version": 1
			}
		}
	}
}