{
	"contracts/Lottery.sol": {
		"Lottery": {
			"abi": [
				{
					"inputs": [],
					"stateMutability": "nonpayable",
					"type": "constructor"
				},
				{
					"inputs": [],
					"name": "getBalance",
					"outputs": [
						{
							"internalType": "uint256",
							"name": "",
							"type": "uint256"
						}
					],
					"stateMutability": "view",
					"type": "function"
				},
				{
					"inputs": [],
					"name": "manager",
					"outputs": [
						{
							"internalType": "address",
							"name": "",
							"type": "address"
						}
					],
					"stateMutability": "view",
					"type": "function"
				},
				{
					"inputs": [
						{
							"internalType": "uint256",
							"name": "",
							"type": "uint256"
						}
					],
					"name": "players",
					"outputs": [
						{
							"internalType": "address payable",
							"name": "",
							"type": "address"
						}
					],
					"stateMutability": "view",
					"type": "function"
				},
				{
					"stateMutability": "payable",
					"type": "receive"
				}
			],
			"devdoc": {
				"kind": "dev",
				"methods": {},
				"version": 1
			},
			"evm": {
				"assembly": "    /* \"contracts/Lottery.sol\":70:590  contract Lottery{... */\n  mstore(0x40, 0x80)\n    /* \"contracts/Lottery.sol\":159:209  constructor(){... */\n  callvalue\n  dup1\n  iszero\n  tag_1\n  jumpi\n  0x00\n  dup1\n  revert\ntag_1:\n  pop\n    /* \"contracts/Lottery.sol\":192:202  msg.sender */\n  caller\n    /* \"contracts/Lottery.sol\":182:189  manager */\n  0x01\n  0x00\n    /* \"contracts/Lottery.sol\":182:202  manager = msg.sender */\n  0x0100\n  exp\n  dup2\n  sload\n  dup2\n  0xffffffffffffffffffffffffffffffffffffffff\n  mul\n  not\n  and\n  swap1\n  dup4\n  0xffffffffffffffffffffffffffffffffffffffff\n  and\n  mul\n  or\n  swap1\n  sstore\n  pop\n    /* \"contracts/Lottery.sol\":70:590  contract Lottery{... */\n  dataSize(sub_0)\n  dup1\n  dataOffset(sub_0)\n  0x00\n  codecopy\n  0x00\n  return\nstop\n\nsub_0: assembly {\n        /* \"contracts/Lottery.sol\":70:590  contract Lottery{... */\n      mstore(0x40, 0x80)\n      jumpi(tag_1, lt(calldatasize, 0x04))\n      shr(0xe0, calldataload(0x00))\n      dup1\n      0x12065fe0\n      eq\n      tag_3\n      jumpi\n      dup1\n      0x481c6a75\n      eq\n      tag_4\n      jumpi\n      dup1\n      0xf71d96cb\n      eq\n      tag_5\n      jumpi\n      jump(tag_2)\n    tag_1:\n      jumpi(tag_2, calldatasize)\n        /* \"contracts/Lottery.sol\":272:282  0.01 ether */\n      0x2386f26fc10000\n        /* \"contracts/Lottery.sol\":259:268  msg.value */\n      callvalue\n        /* \"contracts/Lottery.sol\":259:282  msg.value == 0.01 ether */\n      eq\n        /* \"contracts/Lottery.sol\":251:340  require(msg.value == 0.01 ether, \"This contract only accepts transactions of 0.01 ether\") */\n      tag_8\n      jumpi\n      mload(0x40)\n      0x08c379a000000000000000000000000000000000000000000000000000000000\n      dup2\n      mstore\n      0x04\n      add\n      tag_9\n      swap1\n      tag_10\n      jump\t// in\n    tag_9:\n      mload(0x40)\n      dup1\n      swap2\n      sub\n      swap1\n      revert\n    tag_8:\n        /* \"contracts/Lottery.sol\":350:357  players */\n      0x00\n        /* \"contracts/Lottery.sol\":372:382  msg.sender */\n      caller\n        /* \"contracts/Lottery.sol\":350:384  players.push(payable (msg.sender)) */\n      swap1\n      dup1\n      0x01\n      dup2\n      sload\n      add\n      dup1\n      dup3\n      sstore\n      dup1\n      swap2\n      pop\n      pop\n      0x01\n      swap1\n      sub\n      swap1\n      0x00\n      mstore\n      keccak256(0x00, 0x20)\n      add\n      0x00\n      swap1\n      swap2\n      swap1\n      swap2\n      swap1\n      swap2\n      0x0100\n      exp\n      dup2\n      sload\n      dup2\n      0xffffffffffffffffffffffffffffffffffffffff\n      mul\n      not\n      and\n      swap1\n      dup4\n      0xffffffffffffffffffffffffffffffffffffffff\n      and\n      mul\n      or\n      swap1\n      sstore\n      pop\n        /* \"contracts/Lottery.sol\":70:590  contract Lottery{... */\n      stop\n    tag_2:\n      0x00\n      dup1\n      revert\n        /* \"contracts/Lottery.sol\":482:585  function getBalance() public view onlyOwner returns (uint){... */\n    tag_3:\n      callvalue\n      dup1\n      iszero\n      tag_12\n      jumpi\n      0x00\n      dup1\n      revert\n    tag_12:\n      pop\n      tag_13\n      tag_14\n      jump\t// in\n    tag_13:\n      mload(0x40)\n      tag_15\n      swap2\n      swap1\n      tag_16\n      jump\t// in\n    tag_15:\n      mload(0x40)\n      dup1\n      swap2\n      sub\n      swap1\n      return\n        /* \"contracts/Lottery.sol\":130:152  address public manager */\n    tag_4:\n      callvalue\n      dup1\n      iszero\n      tag_17\n      jumpi\n      0x00\n      dup1\n      revert\n    tag_17:\n      pop\n      tag_18\n      tag_19\n      jump\t// in\n    tag_18:\n      mload(0x40)\n      tag_20\n      swap2\n      swap1\n      tag_21\n      jump\t// in\n    tag_20:\n      mload(0x40)\n      dup1\n      swap2\n      sub\n      swap1\n      return\n        /* \"contracts/Lottery.sol\":92:124  address payable[] public players */\n    tag_5:\n      callvalue\n      dup1\n      iszero\n      tag_22\n      jumpi\n      0x00\n      dup1\n      revert\n    tag_22:\n      pop\n      tag_23\n      0x04\n      dup1\n      calldatasize\n      sub\n      dup2\n      add\n      swap1\n      tag_24\n      swap2\n      swap1\n      tag_25\n      jump\t// in\n    tag_24:\n      tag_26\n      jump\t// in\n    tag_23:\n      mload(0x40)\n      tag_27\n      swap2\n      swap1\n      tag_28\n      jump\t// in\n    tag_27:\n      mload(0x40)\n      dup1\n      swap2\n      sub\n      swap1\n      return\n        /* \"contracts/Lottery.sol\":482:585  function getBalance() public view onlyOwner returns (uint){... */\n    tag_14:\n        /* \"contracts/Lottery.sol\":535:539  uint */\n      0x00\n        /* \"contracts/Lottery.sol\":450:457  manager */\n      0x01\n      0x00\n      swap1\n      sload\n      swap1\n      0x0100\n      exp\n      swap1\n      div\n      0xffffffffffffffffffffffffffffffffffffffff\n      and\n        /* \"contracts/Lottery.sol\":436:457  msg.sender == manager */\n      0xffffffffffffffffffffffffffffffffffffffff\n      and\n        /* \"contracts/Lottery.sol\":436:446  msg.sender */\n      caller\n        /* \"contracts/Lottery.sol\":436:457  msg.sender == manager */\n      0xffffffffffffffffffffffffffffffffffffffff\n      and\n      eq\n        /* \"contracts/Lottery.sol\":427:458  require (msg.sender == manager) */\n      tag_30\n      jumpi\n      0x00\n      dup1\n      revert\n    tag_30:\n        /* \"contracts/Lottery.sol\":557:578  address(this).balance */\n      selfbalance\n        /* \"contracts/Lottery.sol\":550:578  return address(this).balance */\n      swap1\n      pop\n        /* \"contracts/Lottery.sol\":482:585  function getBalance() public view onlyOwner returns (uint){... */\n      swap1\n      jump\t// out\n        /* \"contracts/Lottery.sol\":130:152  address public manager */\n    tag_19:\n      0x01\n      0x00\n      swap1\n      sload\n      swap1\n      0x0100\n      exp\n      swap1\n      div\n      0xffffffffffffffffffffffffffffffffffffffff\n      and\n      dup2\n      jump\t// out\n        /* \"contracts/Lottery.sol\":92:124  address payable[] public players */\n    tag_26:\n      0x00\n      dup2\n      dup2\n      sload\n      dup2\n      lt\n      tag_32\n      jumpi\n      0x00\n      dup1\n      revert\n    tag_32:\n      swap1\n      0x00\n      mstore\n      keccak256(0x00, 0x20)\n      add\n      0x00\n      swap2\n      pop\n      sload\n      swap1\n      0x0100\n      exp\n      swap1\n      div\n      0xffffffffffffffffffffffffffffffffffffffff\n      and\n      dup2\n      jump\t// out\n        /* \"#utility.yul\":7:146   */\n    tag_35:\n        /* \"#utility.yul\":53:58   */\n      0x00\n        /* \"#utility.yul\":91:97   */\n      dup2\n        /* \"#utility.yul\":78:98   */\n      calldataload\n        /* \"#utility.yul\":69:98   */\n      swap1\n      pop\n        /* \"#utility.yul\":107:140   */\n      tag_37\n        /* \"#utility.yul\":134:139   */\n      dup2\n        /* \"#utility.yul\":107:140   */\n      tag_38\n      jump\t// in\n    tag_37:\n        /* \"#utility.yul\":7:146   */\n      swap3\n      swap2\n      pop\n      pop\n      jump\t// out\n        /* \"#utility.yul\":152:481   */\n    tag_25:\n        /* \"#utility.yul\":211:217   */\n      0x00\n        /* \"#utility.yul\":260:262   */\n      0x20\n        /* \"#utility.yul\":248:257   */\n      dup3\n        /* \"#utility.yul\":239:246   */\n      dup5\n        /* \"#utility.yul\":235:258   */\n      sub\n        /* \"#utility.yul\":231:263   */\n      slt\n        /* \"#utility.yul\":228:347   */\n      iszero\n      tag_40\n      jumpi\n        /* \"#utility.yul\":266:345   */\n      tag_41\n      tag_42\n      jump\t// in\n    tag_41:\n        /* \"#utility.yul\":228:347   */\n    tag_40:\n        /* \"#utility.yul\":386:387   */\n      0x00\n        /* \"#utility.yul\":411:464   */\n      tag_43\n        /* \"#utility.yul\":456:463   */\n      dup5\n        /* \"#utility.yul\":447:453   */\n      dup3\n        /* \"#utility.yul\":436:445   */\n      dup6\n        /* \"#utility.yul\":432:454   */\n      add\n        /* \"#utility.yul\":411:464   */\n      tag_35\n      jump\t// in\n    tag_43:\n        /* \"#utility.yul\":401:464   */\n      swap2\n      pop\n        /* \"#utility.yul\":357:474   */\n      pop\n        /* \"#utility.yul\":152:481   */\n      swap3\n      swap2\n      pop\n      pop\n      jump\t// out\n        /* \"#utility.yul\":487:629   */\n    tag_44:\n        /* \"#utility.yul\":590:622   */\n      tag_46\n        /* \"#utility.yul\":616:621   */\n      dup2\n        /* \"#utility.yul\":590:622   */\n      tag_47\n      jump\t// in\n    tag_46:\n        /* \"#utility.yul\":585:588   */\n      dup3\n        /* \"#utility.yul\":578:623   */\n      mstore\n        /* \"#utility.yul\":487:629   */\n      pop\n      pop\n      jump\t// out\n        /* \"#utility.yul\":635:753   */\n    tag_48:\n        /* \"#utility.yul\":722:746   */\n      tag_50\n        /* \"#utility.yul\":740:745   */\n      dup2\n        /* \"#utility.yul\":722:746   */\n      tag_51\n      jump\t// in\n    tag_50:\n        /* \"#utility.yul\":717:720   */\n      dup3\n        /* \"#utility.yul\":710:747   */\n      mstore\n        /* \"#utility.yul\":635:753   */\n      pop\n      pop\n      jump\t// out\n        /* \"#utility.yul\":759:1125   */\n    tag_52:\n        /* \"#utility.yul\":901:904   */\n      0x00\n        /* \"#utility.yul\":922:989   */\n      tag_54\n        /* \"#utility.yul\":986:988   */\n      0x35\n        /* \"#utility.yul\":981:984   */\n      dup4\n        /* \"#utility.yul\":922:989   */\n      tag_55\n      jump\t// in\n    tag_54:\n        /* \"#utility.yul\":915:989   */\n      swap2\n      pop\n        /* \"#utility.yul\":998:1091   */\n      tag_56\n        /* \"#utility.yul\":1087:1090   */\n      dup3\n        /* \"#utility.yul\":998:1091   */\n      tag_57\n      jump\t// in\n    tag_56:\n        /* \"#utility.yul\":1116:1118   */\n      0x40\n        /* \"#utility.yul\":1111:1114   */\n      dup3\n        /* \"#utility.yul\":1107:1119   */\n      add\n        /* \"#utility.yul\":1100:1119   */\n      swap1\n      pop\n        /* \"#utility.yul\":759:1125   */\n      swap2\n      swap1\n      pop\n      jump\t// out\n        /* \"#utility.yul\":1131:1249   */\n    tag_58:\n        /* \"#utility.yul\":1218:1242   */\n      tag_60\n        /* \"#utility.yul\":1236:1241   */\n      dup2\n        /* \"#utility.yul\":1218:1242   */\n      tag_61\n      jump\t// in\n    tag_60:\n        /* \"#utility.yul\":1213:1216   */\n      dup3\n        /* \"#utility.yul\":1206:1243   */\n      mstore\n        /* \"#utility.yul\":1131:1249   */\n      pop\n      pop\n      jump\t// out\n        /* \"#utility.yul\":1255:1477   */\n    tag_21:\n        /* \"#utility.yul\":1348:1352   */\n      0x00\n        /* \"#utility.yul\":1386:1388   */\n      0x20\n        /* \"#utility.yul\":1375:1384   */\n      dup3\n        /* \"#utility.yul\":1371:1389   */\n      add\n        /* \"#utility.yul\":1363:1389   */\n      swap1\n      pop\n        /* \"#utility.yul\":1399:1470   */\n      tag_63\n        /* \"#utility.yul\":1467:1468   */\n      0x00\n        /* \"#utility.yul\":1456:1465   */\n      dup4\n        /* \"#utility.yul\":1452:1469   */\n      add\n        /* \"#utility.yul\":1443:1449   */\n      dup5\n        /* \"#utility.yul\":1399:1470   */\n      tag_48\n      jump\t// in\n    tag_63:\n        /* \"#utility.yul\":1255:1477   */\n      swap3\n      swap2\n      pop\n      pop\n      jump\t// out\n        /* \"#utility.yul\":1483:1737   */\n    tag_28:\n        /* \"#utility.yul\":1592:1596   */\n      0x00\n        /* \"#utility.yul\":1630:1632   */\n      0x20\n        /* \"#utility.yul\":1619:1628   */\n      dup3\n        /* \"#utility.yul\":1615:1633   */\n      add\n        /* \"#utility.yul\":1607:1633   */\n      swap1\n      pop\n        /* \"#utility.yul\":1643:1730   */\n      tag_65\n        /* \"#utility.yul\":1727:1728   */\n      0x00\n        /* \"#utility.yul\":1716:1725   */\n      dup4\n        /* \"#utility.yul\":1712:1729   */\n      add\n        /* \"#utility.yul\":1703:1709   */\n      dup5\n        /* \"#utility.yul\":1643:1730   */\n      tag_44\n      jump\t// in\n    tag_65:\n        /* \"#utility.yul\":1483:1737   */\n      swap3\n      swap2\n      pop\n      pop\n      jump\t// out\n        /* \"#utility.yul\":1743:2162   */\n    tag_10:\n        /* \"#utility.yul\":1909:1913   */\n      0x00\n        /* \"#utility.yul\":1947:1949   */\n      0x20\n        /* \"#utility.yul\":1936:1945   */\n      dup3\n        /* \"#utility.yul\":1932:1950   */\n      add\n        /* \"#utility.yul\":1924:1950   */\n      swap1\n      pop\n        /* \"#utility.yul\":1996:2005   */\n      dup2\n        /* \"#utility.yul\":1990:1994   */\n      dup2\n        /* \"#utility.yul\":1986:2006   */\n      sub\n        /* \"#utility.yul\":1982:1983   */\n      0x00\n        /* \"#utility.yul\":1971:1980   */\n      dup4\n        /* \"#utility.yul\":1967:1984   */\n      add\n        /* \"#utility.yul\":1960:2007   */\n      mstore\n        /* \"#utility.yul\":2024:2155   */\n      tag_67\n        /* \"#utility.yul\":2150:2154   */\n      dup2\n        /* \"#utility.yul\":2024:2155   */\n      tag_52\n      jump\t// in\n    tag_67:\n        /* \"#utility.yul\":2016:2155   */\n      swap1\n      pop\n        /* \"#utility.yul\":1743:2162   */\n      swap2\n      swap1\n      pop\n      jump\t// out\n        /* \"#utility.yul\":2168:2390   */\n    tag_16:\n        /* \"#utility.yul\":2261:2265   */\n      0x00\n        /* \"#utility.yul\":2299:2301   */\n      0x20\n        /* \"#utility.yul\":2288:2297   */\n      dup3\n        /* \"#utility.yul\":2284:2302   */\n      add\n        /* \"#utility.yul\":2276:2302   */\n      swap1\n      pop\n        /* \"#utility.yul\":2312:2383   */\n      tag_69\n        /* \"#utility.yul\":2380:2381   */\n      0x00\n        /* \"#utility.yul\":2369:2378   */\n      dup4\n        /* \"#utility.yul\":2365:2382   */\n      add\n        /* \"#utility.yul\":2356:2362   */\n      dup5\n        /* \"#utility.yul\":2312:2383   */\n      tag_58\n      jump\t// in\n    tag_69:\n        /* \"#utility.yul\":2168:2390   */\n      swap3\n      swap2\n      pop\n      pop\n      jump\t// out\n        /* \"#utility.yul\":2477:2646   */\n    tag_55:\n        /* \"#utility.yul\":2561:2572   */\n      0x00\n        /* \"#utility.yul\":2595:2601   */\n      dup3\n        /* \"#utility.yul\":2590:2593   */\n      dup3\n        /* \"#utility.yul\":2583:2602   */\n      mstore\n        /* \"#utility.yul\":2635:2639   */\n      0x20\n        /* \"#utility.yul\":2630:2633   */\n      dup3\n        /* \"#utility.yul\":2626:2640   */\n      add\n        /* \"#utility.yul\":2611:2640   */\n      swap1\n      pop\n        /* \"#utility.yul\":2477:2646   */\n      swap3\n      swap2\n      pop\n      pop\n      jump\t// out\n        /* \"#utility.yul\":2652:2748   */\n    tag_51:\n        /* \"#utility.yul\":2689:2696   */\n      0x00\n        /* \"#utility.yul\":2718:2742   */\n      tag_74\n        /* \"#utility.yul\":2736:2741   */\n      dup3\n        /* \"#utility.yul\":2718:2742   */\n      tag_75\n      jump\t// in\n    tag_74:\n        /* \"#utility.yul\":2707:2742   */\n      swap1\n      pop\n        /* \"#utility.yul\":2652:2748   */\n      swap2\n      swap1\n      pop\n      jump\t// out\n        /* \"#utility.yul\":2754:2858   */\n    tag_47:\n        /* \"#utility.yul\":2799:2806   */\n      0x00\n        /* \"#utility.yul\":2828:2852   */\n      tag_77\n        /* \"#utility.yul\":2846:2851   */\n      dup3\n        /* \"#utility.yul\":2828:2852   */\n      tag_75\n      jump\t// in\n    tag_77:\n        /* \"#utility.yul\":2817:2852   */\n      swap1\n      pop\n        /* \"#utility.yul\":2754:2858   */\n      swap2\n      swap1\n      pop\n      jump\t// out\n        /* \"#utility.yul\":2864:2990   */\n    tag_75:\n        /* \"#utility.yul\":2901:2908   */\n      0x00\n        /* \"#utility.yul\":2941:2983   */\n      0xffffffffffffffffffffffffffffffffffffffff\n        /* \"#utility.yul\":2934:2939   */\n      dup3\n        /* \"#utility.yul\":2930:2984   */\n      and\n        /* \"#utility.yul\":2919:2984   */\n      swap1\n      pop\n        /* \"#utility.yul\":2864:2990   */\n      swap2\n      swap1\n      pop\n      jump\t// out\n        /* \"#utility.yul\":2996:3073   */\n    tag_61:\n        /* \"#utility.yul\":3033:3040   */\n      0x00\n        /* \"#utility.yul\":3062:3067   */\n      dup2\n        /* \"#utility.yul\":3051:3067   */\n      swap1\n      pop\n        /* \"#utility.yul\":2996:3073   */\n      swap2\n      swap1\n      pop\n      jump\t// out\n        /* \"#utility.yul\":3202:3319   */\n    tag_42:\n        /* \"#utility.yul\":3311:3312   */\n      0x00\n        /* \"#utility.yul\":3308:3309   */\n      dup1\n        /* \"#utility.yul\":3301:3313   */\n      revert\n        /* \"#utility.yul\":3325:3565   */\n    tag_57:\n        /* \"#utility.yul\":3465:3499   */\n      0x5468697320636f6e7472616374206f6e6c792061636365707473207472616e73\n        /* \"#utility.yul\":3461:3462   */\n      0x00\n        /* \"#utility.yul\":3453:3459   */\n      dup3\n        /* \"#utility.yul\":3449:3463   */\n      add\n        /* \"#utility.yul\":3442:3500   */\n      mstore\n        /* \"#utility.yul\":3534:3557   */\n      0x616374696f6e73206f6620302e30312065746865720000000000000000000000\n        /* \"#utility.yul\":3529:3531   */\n      0x20\n        /* \"#utility.yul\":3521:3527   */\n      dup3\n        /* \"#utility.yul\":3517:3532   */\n      add\n        /* \"#utility.yul\":3510:3558   */\n      mstore\n        /* \"#utility.yul\":3325:3565   */\n      pop\n      jump\t// out\n        /* \"#utility.yul\":3571:3693   */\n    tag_38:\n        /* \"#utility.yul\":3644:3668   */\n      tag_85\n        /* \"#utility.yul\":3662:3667   */\n      dup2\n        /* \"#utility.yul\":3644:3668   */\n      tag_61\n      jump\t// in\n    tag_85:\n        /* \"#utility.yul\":3637:3642   */\n      dup2\n        /* \"#utility.yul\":3634:3669   */\n      eq\n        /* \"#utility.yul\":3624:3687   */\n      tag_86\n      jumpi\n        /* \"#utility.yul\":3683:3684   */\n      0x00\n        /* \"#utility.yul\":3680:3681   */\n      dup1\n        /* \"#utility.yul\":3673:3685   */\n      revert\n        /* \"#utility.yul\":3624:3687   */\n    tag_86:\n        /* \"#utility.yul\":3571:3693   */\n      pop\n      jump\t// out\n\n    auxdata: 0xa26469706673582212206869df777ed437aea7060c0fb02d6568590a625f03bb54eadada8974fac0958564736f6c63430008070033\n}\n",
				"bytecode": {
					"linkReferences": {},
					"object": "608060405234801561001057600080fd5b5033600160006101000a81548173ffffffffffffffffffffffffffffffffffffffff021916908373ffffffffffffffffffffffffffffffffffffffff16021790555061044d806100616000396000f3fe6080604052600436106100385760003560e01c806312065fe0146100f0578063481c6a751461011b578063f71d96cb14610146576100eb565b366100eb57662386f26fc100003414610086576040517f08c379a000000000000000000000000000000000000000000000000000000000815260040161007d90610312565b60405180910390fd5b6000339080600181540180825580915050600190039060005260206000200160009091909190916101000a81548173ffffffffffffffffffffffffffffffffffffffff021916908373ffffffffffffffffffffffffffffffffffffffff160217905550005b600080fd5b3480156100fc57600080fd5b50610105610183565b6040516101129190610332565b60405180910390f35b34801561012757600080fd5b506101306101e5565b60405161013d91906102dc565b60405180910390f35b34801561015257600080fd5b5061016d6004803603810190610168919061025f565b61020b565b60405161017a91906102f7565b60405180910390f35b6000600160009054906101000a900473ffffffffffffffffffffffffffffffffffffffff1673ffffffffffffffffffffffffffffffffffffffff163373ffffffffffffffffffffffffffffffffffffffff16146101df57600080fd5b47905090565b600160009054906101000a900473ffffffffffffffffffffffffffffffffffffffff1681565b6000818154811061021b57600080fd5b906000526020600020016000915054906101000a900473ffffffffffffffffffffffffffffffffffffffff1681565b60008135905061025981610400565b92915050565b600060208284031215610275576102746103ac565b5b60006102838482850161024a565b91505092915050565b61029581610370565b82525050565b6102a48161035e565b82525050565b60006102b760358361034d565b91506102c2826103b1565b604082019050919050565b6102d6816103a2565b82525050565b60006020820190506102f1600083018461029b565b92915050565b600060208201905061030c600083018461028c565b92915050565b6000602082019050818103600083015261032b816102aa565b9050919050565b600060208201905061034760008301846102cd565b92915050565b600082825260208201905092915050565b600061036982610382565b9050919050565b600061037b82610382565b9050919050565b600073ffffffffffffffffffffffffffffffffffffffff82169050919050565b6000819050919050565b600080fd5b7f5468697320636f6e7472616374206f6e6c792061636365707473207472616e7360008201527f616374696f6e73206f6620302e30312065746865720000000000000000000000602082015250565b610409816103a2565b811461041457600080fd5b5056fea26469706673582212206869df777ed437aea7060c0fb02d6568590a625f03bb54eadada8974fac0958564736f6c63430008070033",
					"opcodes": "PUSH1 0x80 PUSH1 0x40 MSTORE CALLVALUE DUP1 ISZERO PUSH2 0x10 JUMPI PUSH1 0x0 DUP1 REVERT JUMPDEST POP CALLER PUSH1 0x1 PUSH1 0x0 PUSH2 0x100 EXP DUP2 SLOAD DUP2 PUSH20 0xFFFFFFFFFFFFFFFFFFFFFFFFFFFFFFFFFFFFFFFF MUL NOT AND SWAP1 DUP4 PUSH20 0xFFFFFFFFFFFFFFFFFFFFFFFFFFFFFFFFFFFFFFFF AND MUL OR SWAP1 SSTORE POP PUSH2 0x44D DUP1 PUSH2 0x61 PUSH1 0x0 CODECOPY PUSH1 0x0 RETURN INVALID PUSH1 0x80 PUSH1 0x40 MSTORE PUSH1 0x4 CALLDATASIZE LT PUSH2 0x38 JUMPI PUSH1 0x0 CALLDATALOAD PUSH1 0xE0 SHR DUP1 PUSH4 0x12065FE0 EQ PUSH2 0xF0 JUMPI DUP1 PUSH4 0x481C6A75 EQ PUSH2 0x11B JUMPI DUP1 PUSH4 0xF71D96CB EQ PUSH2 0x146 JUMPI PUSH2 0xEB JUMP JUMPDEST CALLDATASIZE PUSH2 0xEB JUMPI PUSH7 0x2386F26FC10000 CALLVALUE EQ PUSH2 0x86 JUMPI PUSH1 0x40 MLOAD PUSH32 0x8C379A000000000000000000000000000000000000000000000000000000000 DUP2 MSTORE PUSH1 0x4 ADD PUSH2 0x7D SWAP1 PUSH2 0x312 JUMP JUMPDEST PUSH1 0x40 MLOAD DUP1 SWAP2 SUB SWAP1 REVERT JUMPDEST PUSH1 0x0 CALLER SWAP1 DUP1 PUSH1 0x1 DUP2 SLOAD ADD DUP1 DUP3 SSTORE DUP1 SWAP2 POP POP PUSH1 0x1 SWAP1 SUB SWAP1 PUSH1 0x0 MSTORE PUSH1 0x20 PUSH1 0x0 KECCAK256 ADD PUSH1 0x0 SWAP1 SWAP2 SWAP1 SWAP2 SWAP1 SWAP2 PUSH2 0x100 EXP DUP2 SLOAD DUP2 PUSH20 0xFFFFFFFFFFFFFFFFFFFFFFFFFFFFFFFFFFFFFFFF MUL NOT AND SWAP1 DUP4 PUSH20 0xFFFFFFFFFFFFFFFFFFFFFFFFFFFFFFFFFFFFFFFF AND MUL OR SWAP1 SSTORE POP STOP JUMPDEST PUSH1 0x0 DUP1 REVERT JUMPDEST CALLVALUE DUP1 ISZERO PUSH2 0xFC JUMPI PUSH1 0x0 DUP1 REVERT JUMPDEST POP PUSH2 0x105 PUSH2 0x183 JUMP JUMPDEST PUSH1 0x40 MLOAD PUSH2 0x112 SWAP2 SWAP1 PUSH2 0x332 JUMP JUMPDEST PUSH1 0x40 MLOAD DUP1 SWAP2 SUB SWAP1 RETURN JUMPDEST CALLVALUE DUP1 ISZERO PUSH2 0x127 JUMPI PUSH1 0x0 DUP1 REVERT JUMPDEST POP PUSH2 0x130 PUSH2 0x1E5 JUMP JUMPDEST PUSH1 0x40 MLOAD PUSH2 0x13D SWAP2 SWAP1 PUSH2 0x2DC JUMP JUMPDEST PUSH1 0x40 MLOAD DUP1 SWAP2 SUB SWAP1 RETURN JUMPDEST CALLVALUE DUP1 ISZERO PUSH2 0x152 JUMPI PUSH1 0x0 DUP1 REVERT JUMPDEST POP PUSH2 0x16D PUSH1 0x4 DUP1 CALLDATASIZE SUB DUP2 ADD SWAP1 PUSH2 0x168 SWAP2 SWAP1 PUSH2 0x25F JUMP JUMPDEST PUSH2 0x20B JUMP JUMPDEST PUSH1 0x40 MLOAD PUSH2 0x17A SWAP2 SWAP1 PUSH2 0x2F7 JUMP JUMPDEST PUSH1 0x40 MLOAD DUP1 SWAP2 SUB SWAP1 RETURN JUMPDEST PUSH1 0x0 PUSH1 0x1 PUSH1 0x0 SWAP1 SLOAD SWAP1 PUSH2 0x100 EXP SWAP1 DIV PUSH20 0xFFFFFFFFFFFFFFFFFFFFFFFFFFFFFFFFFFFFFFFF AND PUSH20 0xFFFFFFFFFFFFFFFFFFFFFFFFFFFFFFFFFFFFFFFF AND CALLER PUSH20 0xFFFFFFFFFFFFFFFFFFFFFFFFFFFFFFFFFFFFFFFF AND EQ PUSH2 0x1DF JUMPI PUSH1 0x0 DUP1 REVERT JUMPDEST SELFBALANCE SWAP1 POP SWAP1 JUMP JUMPDEST PUSH1 0x1 PUSH1 0x0 SWAP1 SLOAD SWAP1 PUSH2 0x100 EXP SWAP1 DIV PUSH20 0xFFFFFFFFFFFFFFFFFFFFFFFFFFFFFFFFFFFFFFFF AND DUP2 JUMP JUMPDEST PUSH1 0x0 DUP2 DUP2 SLOAD DUP2 LT PUSH2 0x21B JUMPI PUSH1 0x0 DUP1 REVERT JUMPDEST SWAP1 PUSH1 0x0 MSTORE PUSH1 0x20 PUSH1 0x0 KECCAK256 ADD PUSH1 0x0 SWAP2 POP SLOAD SWAP1 PUSH2 0x100 EXP SWAP1 DIV PUSH20 0xFFFFFFFFFFFFFFFFFFFFFFFFFFFFFFFFFFFFFFFF AND DUP2 JUMP JUMPDEST PUSH1 0x0 DUP2 CALLDATALOAD SWAP1 POP PUSH2 0x259 DUP2 PUSH2 0x400 JUMP JUMPDEST SWAP3 SWAP2 POP POP JUMP JUMPDEST PUSH1 0x0 PUSH1 0x20 DUP3 DUP5 SUB SLT ISZERO PUSH2 0x275 JUMPI PUSH2 0x274 PUSH2 0x3AC JUMP JUMPDEST JUMPDEST PUSH1 0x0 PUSH2 0x283 DUP5 DUP3 DUP6 ADD PUSH2 0x24A JUMP JUMPDEST SWAP2 POP POP SWAP3 SWAP2 POP POP JUMP JUMPDEST PUSH2 0x295 DUP2 PUSH2 0x370 JUMP JUMPDEST DUP3 MSTORE POP POP JUMP JUMPDEST PUSH2 0x2A4 DUP2 PUSH2 0x35E JUMP JUMPDEST DUP3 MSTORE POP POP JUMP JUMPDEST PUSH1 0x0 PUSH2 0x2B7 PUSH1 0x35 DUP4 PUSH2 0x34D JUMP JUMPDEST SWAP2 POP PUSH2 0x2C2 DUP3 PUSH2 0x3B1 JUMP JUMPDEST PUSH1 0x40 DUP3 ADD SWAP1 POP SWAP2 SWAP1 POP JUMP JUMPDEST PUSH2 0x2D6 DUP2 PUSH2 0x3A2 JUMP JUMPDEST DUP3 MSTORE POP POP JUMP JUMPDEST PUSH1 0x0 PUSH1 0x20 DUP3 ADD SWAP1 POP PUSH2 0x2F1 PUSH1 0x0 DUP4 ADD DUP5 PUSH2 0x29B JUMP JUMPDEST SWAP3 SWAP2 POP POP JUMP JUMPDEST PUSH1 0x0 PUSH1 0x20 DUP3 ADD SWAP1 POP PUSH2 0x30C PUSH1 0x0 DUP4 ADD DUP5 PUSH2 0x28C JUMP JUMPDEST SWAP3 SWAP2 POP POP JUMP JUMPDEST PUSH1 0x0 PUSH1 0x20 DUP3 ADD SWAP1 POP DUP2 DUP2 SUB PUSH1 0x0 DUP4 ADD MSTORE PUSH2 0x32B DUP2 PUSH2 0x2AA JUMP JUMPDEST SWAP1 POP SWAP2 SWAP1 POP JUMP JUMPDEST PUSH1 0x0 PUSH1 0x20 DUP3 ADD SWAP1 POP PUSH2 0x347 PUSH1 0x0 DUP4 ADD DUP5 PUSH2 0x2CD JUMP JUMPDEST SWAP3 SWAP2 POP POP JUMP JUMPDEST PUSH1 0x0 DUP3 DUP3 MSTORE PUSH1 0x20 DUP3 ADD SWAP1 POP SWAP3 SWAP2 POP POP JUMP JUMPDEST PUSH1 0x0 PUSH2 0x369 DUP3 PUSH2 0x382 JUMP JUMPDEST SWAP1 POP SWAP2 SWAP1 POP JUMP JUMPDEST PUSH1 0x0 PUSH2 0x37B DUP3 PUSH2 0x382 JUMP JUMPDEST SWAP1 POP SWAP2 SWAP1 POP JUMP JUMPDEST PUSH1 0x0 PUSH20 0xFFFFFFFFFFFFFFFFFFFFFFFFFFFFFFFFFFFFFFFF DUP3 AND SWAP1 POP SWAP2 SWAP1 POP JUMP JUMPDEST PUSH1 0x0 DUP2 SWAP1 POP SWAP2 SWAP1 POP JUMP JUMPDEST PUSH1 0x0 DUP1 REVERT JUMPDEST PUSH32 0x5468697320636F6E7472616374206F6E6C792061636365707473207472616E73 PUSH1 0x0 DUP3 ADD MSTORE PUSH32 0x616374696F6E73206F6620302E30312065746865720000000000000000000000 PUSH1 0x20 DUP3 ADD MSTORE POP JUMP JUMPDEST PUSH2 0x409 DUP2 PUSH2 0x3A2 JUMP JUMPDEST DUP2 EQ PUSH2 0x414 JUMPI PUSH1 0x0 DUP1 REVERT JUMPDEST POP JUMP INVALID LOG2 PUSH5 0x6970667358 0x22 SLT KECCAK256 PUSH9 0x69DF777ED437AEA706 0xC 0xF 0xB0 0x2D PUSH6 0x68590A625F03 0xBB SLOAD 0xEA 0xDA 0xDA DUP10 PUSH21 0xFAC0958564736F6C63430008070033000000000000 "
				},
				"gasEstimates": {
					"creation": {
						"codeDepositCost": "220200",
						"executionCost": "24529",
						"totalCost": "244729"
					},
					"external": {
						"getBalance()": "2487",
						"manager()": "2514",
						"players(uint256)": "4978"
					}
				},
				"methodIdentifiers": {
					"getBalance()": "12065fe0",
					"manager()": "481c6a75",
					"players(uint256)": "f71d96cb"
				}
			},
			"storageLayout": {
				"storage": [
					{
						"astId": 4,
						"contract": "contracts/Lottery.sol:Lottery",
						"label": "players",
						"offset": 0,
						"slot": "0",
						"type": "t_array(t_address_payable)dyn_storage"
					},
					{
						"astId": 6,
						"contract": "contracts/Lottery.sol:Lottery",
						"label": "manager",
						"offset": 0,
						"slot": "1",
						"type": "t_address"
					}
				],
				"types": {
					"t_address": {
						"encoding": "inplace",
						"label": "address",
						"numberOfBytes": "20"
					},
					"t_address_payable": {
						"encoding": "inplace",
						"label": "address payable",
						"numberOfBytes": "20"
					},
					"t_array(t_address_payable)dyn_storage": {
						"base": "t_address_payable",
						"encoding": "dynamic_array",
						"label": "address payable[]",
						"numberOfBytes": "32"
					}
				}
			},
			"userdoc": {
				"kind": "user",
				"methods": {},
				"version": 1
			}
		}
	}
}