{
	"contracts/Lottery.sol": {
		"Lottery": {
			"abi": [
				{
					"inputs": [],
					"stateMutability": "nonpayable",
					"type": "constructor"
				},
				{
					"inputs": [],
					"name": "getBalance",
					"outputs": [
						{
							"internalType": "uint256",
							"name": "",
							"type": "uint256"
						}
					],
					"stateMutability": "view",
					"type": "function"
				},
				{
					"inputs": [],
					"name": "manager",
					"outputs": [
						{
							"internalType": "address payable",
							"name": "",
							"type": "address"
						}
					],
					"stateMutability": "view",
					"type": "function"
				},
				{
					"inputs": [],
					"name": "pickWinner",
					"outputs": [],
					"stateMutability": "nonpayable",
					"type": "function"
				},
				{
					"inputs": [
						{
							"internalType": "uint256",
							"name": "",
							"type": "uint256"
						}
					],
					"name": "players",
					"outputs": [
						{
							"internalType": "address payable",
							"name": "",
							"type": "address"
						}
					],
					"stateMutability": "view",
					"type": "function"
				},
				{
					"stateMutability": "payable",
					"type": "receive"
				}
			],
			"devdoc": {
				"kind": "dev",
				"methods": {},
				"version": 1
			},
			"evm": {
				"assembly": "    /* \"contracts/Lottery.sol\":70:1481  contract Lottery{... */\n  mstore(0x40, 0x80)\n    /* \"contracts/Lottery.sol\":168:258  constructor(){... */\n  callvalue\n  dup1\n  iszero\n  tag_1\n  jumpi\n  0x00\n  dup1\n  revert\ntag_1:\n  pop\n    /* \"contracts/Lottery.sol\":209:219  msg.sender */\n  caller\n    /* \"contracts/Lottery.sol\":191:198  manager */\n  0x01\n  0x00\n    /* \"contracts/Lottery.sol\":191:220  manager = payable(msg.sender) */\n  0x0100\n  exp\n  dup2\n  sload\n  dup2\n  0xffffffffffffffffffffffffffffffffffffffff\n  mul\n  not\n  and\n  swap1\n  dup4\n  0xffffffffffffffffffffffffffffffffffffffff\n  and\n  mul\n  or\n  swap1\n  sstore\n  pop\n    /* \"contracts/Lottery.sol\":230:237  players */\n  0x00\n    /* \"contracts/Lottery.sol\":243:250  manager */\n  0x01\n  0x00\n  swap1\n  sload\n  swap1\n  0x0100\n  exp\n  swap1\n  div\n  0xffffffffffffffffffffffffffffffffffffffff\n  and\n    /* \"contracts/Lottery.sol\":230:251  players.push(manager) */\n  swap1\n  dup1\n  0x01\n  dup2\n  sload\n  add\n  dup1\n  dup3\n  sstore\n  dup1\n  swap2\n  pop\n  pop\n  0x01\n  swap1\n  sub\n  swap1\n  0x00\n  mstore\n  keccak256(0x00, 0x20)\n  add\n  0x00\n  swap1\n  swap2\n  swap1\n  swap2\n  swap1\n  swap2\n  0x0100\n  exp\n  dup2\n  sload\n  dup2\n  0xffffffffffffffffffffffffffffffffffffffff\n  mul\n  not\n  and\n  swap1\n  dup4\n  0xffffffffffffffffffffffffffffffffffffffff\n  and\n  mul\n  or\n  swap1\n  sstore\n  pop\n    /* \"contracts/Lottery.sol\":70:1481  contract Lottery{... */\n  dataSize(sub_0)\n  dup1\n  dataOffset(sub_0)\n  0x00\n  codecopy\n  0x00\n  return\nstop\n\nsub_0: assembly {\n        /* \"contracts/Lottery.sol\":70:1481  contract Lottery{... */\n      mstore(0x40, 0x80)\n      jumpi(tag_1, lt(calldatasize, 0x04))\n      shr(0xe0, calldataload(0x00))\n      dup1\n      0x12065fe0\n      eq\n      tag_3\n      jumpi\n      dup1\n      0x481c6a75\n      eq\n      tag_4\n      jumpi\n      dup1\n      0x5d495aea\n      eq\n      tag_5\n      jumpi\n      dup1\n      0xf71d96cb\n      eq\n      tag_6\n      jumpi\n      jump(tag_2)\n    tag_1:\n      jumpi(tag_2, calldatasize)\n        /* \"contracts/Lottery.sol\":322:329  manager */\n      0x01\n      0x00\n      swap1\n      sload\n      swap1\n      0x0100\n      exp\n      swap1\n      div\n      0xffffffffffffffffffffffffffffffffffffffff\n      and\n        /* \"contracts/Lottery.sol\":308:329  msg.sender != manager */\n      0xffffffffffffffffffffffffffffffffffffffff\n      and\n        /* \"contracts/Lottery.sol\":308:318  msg.sender */\n      caller\n        /* \"contracts/Lottery.sol\":308:329  msg.sender != manager */\n      0xffffffffffffffffffffffffffffffffffffffff\n      and\n      eq\n      iszero\n        /* \"contracts/Lottery.sol\":300:330  require(msg.sender != manager) */\n      tag_9\n      jumpi\n      0x00\n      dup1\n      revert\n    tag_9:\n        /* \"contracts/Lottery.sol\":361:371  0.01 ether */\n      0x2386f26fc10000\n        /* \"contracts/Lottery.sol\":348:357  msg.value */\n      callvalue\n        /* \"contracts/Lottery.sol\":348:371  msg.value == 0.01 ether */\n      eq\n        /* \"contracts/Lottery.sol\":340:429  require(msg.value == 0.01 ether, \"This contract only accepts transactions of 0.01 ether\") */\n      tag_10\n      jumpi\n      mload(0x40)\n      0x08c379a000000000000000000000000000000000000000000000000000000000\n      dup2\n      mstore\n      0x04\n      add\n      tag_11\n      swap1\n      tag_12\n      jump\t// in\n    tag_11:\n      mload(0x40)\n      dup1\n      swap2\n      sub\n      swap1\n      revert\n    tag_10:\n        /* \"contracts/Lottery.sol\":439:446  players */\n      0x00\n        /* \"contracts/Lottery.sol\":461:471  msg.sender */\n      caller\n        /* \"contracts/Lottery.sol\":439:473  players.push(payable (msg.sender)) */\n      swap1\n      dup1\n      0x01\n      dup2\n      sload\n      add\n      dup1\n      dup3\n      sstore\n      dup1\n      swap2\n      pop\n      pop\n      0x01\n      swap1\n      sub\n      swap1\n      0x00\n      mstore\n      keccak256(0x00, 0x20)\n      add\n      0x00\n      swap1\n      swap2\n      swap1\n      swap2\n      swap1\n      swap2\n      0x0100\n      exp\n      dup2\n      sload\n      dup2\n      0xffffffffffffffffffffffffffffffffffffffff\n      mul\n      not\n      and\n      swap1\n      dup4\n      0xffffffffffffffffffffffffffffffffffffffff\n      and\n      mul\n      or\n      swap1\n      sstore\n      pop\n        /* \"contracts/Lottery.sol\":70:1481  contract Lottery{... */\n      stop\n    tag_2:\n      0x00\n      dup1\n      revert\n        /* \"contracts/Lottery.sol\":571:674  function getBalance() public view onlyOwner returns (uint){... */\n    tag_3:\n      callvalue\n      dup1\n      iszero\n      tag_14\n      jumpi\n      0x00\n      dup1\n      revert\n    tag_14:\n      pop\n      tag_15\n      tag_16\n      jump\t// in\n    tag_15:\n      mload(0x40)\n      tag_17\n      swap2\n      swap1\n      tag_18\n      jump\t// in\n    tag_17:\n      mload(0x40)\n      dup1\n      swap2\n      sub\n      swap1\n      return\n        /* \"contracts/Lottery.sol\":130:161  address payable public  manager */\n    tag_4:\n      callvalue\n      dup1\n      iszero\n      tag_19\n      jumpi\n      0x00\n      dup1\n      revert\n    tag_19:\n      pop\n      tag_20\n      tag_21\n      jump\t// in\n    tag_20:\n      mload(0x40)\n      tag_22\n      swap2\n      swap1\n      tag_23\n      jump\t// in\n    tag_22:\n      mload(0x40)\n      dup1\n      swap2\n      sub\n      swap1\n      return\n        /* \"contracts/Lottery.sol\":840:1479  function pickWinner() public onlyOwner{... */\n    tag_5:\n      callvalue\n      dup1\n      iszero\n      tag_24\n      jumpi\n      0x00\n      dup1\n      revert\n    tag_24:\n      pop\n      tag_25\n      tag_26\n      jump\t// in\n    tag_25:\n      stop\n        /* \"contracts/Lottery.sol\":92:124  address payable[] public players */\n    tag_6:\n      callvalue\n      dup1\n      iszero\n      tag_27\n      jumpi\n      0x00\n      dup1\n      revert\n    tag_27:\n      pop\n      tag_28\n      0x04\n      dup1\n      calldatasize\n      sub\n      dup2\n      add\n      swap1\n      tag_29\n      swap2\n      swap1\n      tag_30\n      jump\t// in\n    tag_29:\n      tag_31\n      jump\t// in\n    tag_28:\n      mload(0x40)\n      tag_32\n      swap2\n      swap1\n      tag_23\n      jump\t// in\n    tag_32:\n      mload(0x40)\n      dup1\n      swap2\n      sub\n      swap1\n      return\n        /* \"contracts/Lottery.sol\":571:674  function getBalance() public view onlyOwner returns (uint){... */\n    tag_16:\n        /* \"contracts/Lottery.sol\":624:628  uint */\n      0x00\n        /* \"contracts/Lottery.sol\":539:546  manager */\n      0x01\n      0x00\n      swap1\n      sload\n      swap1\n      0x0100\n      exp\n      swap1\n      div\n      0xffffffffffffffffffffffffffffffffffffffff\n      and\n        /* \"contracts/Lottery.sol\":525:546  msg.sender == manager */\n      0xffffffffffffffffffffffffffffffffffffffff\n      and\n        /* \"contracts/Lottery.sol\":525:535  msg.sender */\n      caller\n        /* \"contracts/Lottery.sol\":525:546  msg.sender == manager */\n      0xffffffffffffffffffffffffffffffffffffffff\n      and\n      eq\n        /* \"contracts/Lottery.sol\":516:547  require (msg.sender == manager) */\n      tag_34\n      jumpi\n      0x00\n      dup1\n      revert\n    tag_34:\n        /* \"contracts/Lottery.sol\":646:667  address(this).balance */\n      selfbalance\n        /* \"contracts/Lottery.sol\":639:667  return address(this).balance */\n      swap1\n      pop\n        /* \"contracts/Lottery.sol\":571:674  function getBalance() public view onlyOwner returns (uint){... */\n      swap1\n      jump\t// out\n        /* \"contracts/Lottery.sol\":130:161  address payable public  manager */\n    tag_21:\n      0x01\n      0x00\n      swap1\n      sload\n      swap1\n      0x0100\n      exp\n      swap1\n      div\n      0xffffffffffffffffffffffffffffffffffffffff\n      and\n      dup2\n      jump\t// out\n        /* \"contracts/Lottery.sol\":840:1479  function pickWinner() public onlyOwner{... */\n    tag_26:\n        /* \"contracts/Lottery.sol\":539:546  manager */\n      0x01\n      0x00\n      swap1\n      sload\n      swap1\n      0x0100\n      exp\n      swap1\n      div\n      0xffffffffffffffffffffffffffffffffffffffff\n      and\n        /* \"contracts/Lottery.sol\":525:546  msg.sender == manager */\n      0xffffffffffffffffffffffffffffffffffffffff\n      and\n        /* \"contracts/Lottery.sol\":525:535  msg.sender */\n      caller\n        /* \"contracts/Lottery.sol\":525:546  msg.sender == manager */\n      0xffffffffffffffffffffffffffffffffffffffff\n      and\n      eq\n        /* \"contracts/Lottery.sol\":516:547  require (msg.sender == manager) */\n      tag_37\n      jumpi\n      0x00\n      dup1\n      revert\n    tag_37:\n        /* \"contracts/Lottery.sol\":914:916  10 */\n      0x0a\n        /* \"contracts/Lottery.sol\":896:903  players */\n      0x00\n        /* \"contracts/Lottery.sol\":896:910  players.length */\n      dup1\n      sload\n      swap1\n      pop\n        /* \"contracts/Lottery.sol\":896:916  players.length >= 10 */\n      lt\n      iszero\n        /* \"contracts/Lottery.sol\":888:917  require(players.length >= 10) */\n      tag_39\n      jumpi\n      0x00\n      dup1\n      revert\n    tag_39:\n        /* \"contracts/Lottery.sol\":956:962  uint r */\n      0x00\n        /* \"contracts/Lottery.sol\":965:973  random() */\n      tag_40\n        /* \"contracts/Lottery.sol\":965:971  random */\n      tag_41\n        /* \"contracts/Lottery.sol\":965:973  random() */\n      jump\t// in\n    tag_40:\n        /* \"contracts/Lottery.sol\":956:973  uint r = random() */\n      swap1\n      pop\n        /* \"contracts/Lottery.sol\":983:1000  uint winningIndex */\n      0x00\n        /* \"contracts/Lottery.sol\":1007:1014  players */\n      dup1\n        /* \"contracts/Lottery.sol\":1007:1021  players.length */\n      dup1\n      sload\n      swap1\n      pop\n        /* \"contracts/Lottery.sol\":1003:1004  r */\n      dup3\n        /* \"contracts/Lottery.sol\":1003:1021  r % players.length */\n      tag_42\n      swap2\n      swap1\n      tag_43\n      jump\t// in\n    tag_42:\n        /* \"contracts/Lottery.sol\":983:1021  uint winningIndex = r % players.length */\n      swap1\n      pop\n        /* \"contracts/Lottery.sol\":1031:1053  address payable winner */\n      0x00\n        /* \"contracts/Lottery.sol\":1056:1063  players */\n      dup1\n        /* \"contracts/Lottery.sol\":1064:1076  winningIndex */\n      dup3\n        /* \"contracts/Lottery.sol\":1056:1077  players[winningIndex] */\n      dup2\n      sload\n      dup2\n      lt\n      tag_44\n      jumpi\n      tag_45\n      tag_46\n      jump\t// in\n    tag_45:\n    tag_44:\n      swap1\n      0x00\n      mstore\n      keccak256(0x00, 0x20)\n      add\n      0x00\n      swap1\n      sload\n      swap1\n      0x0100\n      exp\n      swap1\n      div\n      0xffffffffffffffffffffffffffffffffffffffff\n      and\n        /* \"contracts/Lottery.sol\":1031:1077  address payable winner = players[winningIndex] */\n      swap1\n      pop\n        /* \"contracts/Lottery.sol\":1131:1148  uint winnersShare */\n      0x00\n        /* \"contracts/Lottery.sol\":1175:1176  9 */\n      0x09\n        /* \"contracts/Lottery.sol\":1151:1172  address(this).balance */\n      selfbalance\n        /* \"contracts/Lottery.sol\":1151:1176  address(this).balance * 9 */\n      tag_48\n      swap2\n      swap1\n      tag_49\n      jump\t// in\n    tag_48:\n        /* \"contracts/Lottery.sol\":1131:1176  uint winnersShare = address(this).balance * 9 */\n      swap1\n      pop\n        /* \"contracts/Lottery.sol\":1187:1203  uint managersTax */\n      0x00\n        /* \"contracts/Lottery.sol\":1230:1242  winnersShare */\n      dup2\n        /* \"contracts/Lottery.sol\":1206:1227  address(this).balance */\n      selfbalance\n        /* \"contracts/Lottery.sol\":1206:1242  address(this).balance - winnersShare */\n      tag_50\n      swap2\n      swap1\n      tag_51\n      jump\t// in\n    tag_50:\n        /* \"contracts/Lottery.sol\":1187:1242  uint managersTax = address(this).balance - winnersShare */\n      swap1\n      pop\n        /* \"contracts/Lottery.sol\":1276:1282  winner */\n      dup3\n        /* \"contracts/Lottery.sol\":1276:1291  winner.transfer */\n      0xffffffffffffffffffffffffffffffffffffffff\n      and\n        /* \"contracts/Lottery.sol\":1276:1305  winner.transfer(winnersShare) */\n      0x08fc\n        /* \"contracts/Lottery.sol\":1292:1304  winnersShare */\n      dup4\n        /* \"contracts/Lottery.sol\":1276:1305  winner.transfer(winnersShare) */\n      swap1\n      dup2\n      iszero\n      mul\n      swap1\n      mload(0x40)\n      0x00\n      mload(0x40)\n      dup1\n      dup4\n      sub\n      dup2\n      dup6\n      dup9\n      dup9\n      call\n      swap4\n      pop\n      pop\n      pop\n      pop\n      iszero\n      dup1\n      iszero\n      tag_53\n      jumpi\n      returndatasize\n      0x00\n      dup1\n      returndatacopy\n      revert(0x00, returndatasize)\n    tag_53:\n      pop\n        /* \"contracts/Lottery.sol\":1315:1322  manager */\n      0x01\n      0x00\n      swap1\n      sload\n      swap1\n      0x0100\n      exp\n      swap1\n      div\n      0xffffffffffffffffffffffffffffffffffffffff\n      and\n        /* \"contracts/Lottery.sol\":1315:1331  manager.transfer */\n      0xffffffffffffffffffffffffffffffffffffffff\n      and\n        /* \"contracts/Lottery.sol\":1315:1344  manager.transfer(managersTax) */\n      0x08fc\n        /* \"contracts/Lottery.sol\":1332:1343  managersTax */\n      dup3\n        /* \"contracts/Lottery.sol\":1315:1344  manager.transfer(managersTax) */\n      swap1\n      dup2\n      iszero\n      mul\n      swap1\n      mload(0x40)\n      0x00\n      mload(0x40)\n      dup1\n      dup4\n      sub\n      dup2\n      dup6\n      dup9\n      dup9\n      call\n      swap4\n      pop\n      pop\n      pop\n      pop\n      iszero\n      dup1\n      iszero\n      tag_55\n      jumpi\n      returndatasize\n      0x00\n      dup1\n      returndatacopy\n      revert(0x00, returndatasize)\n    tag_55:\n      pop\n        /* \"contracts/Lottery.sol\":1417:1418  0 */\n      0x00\n        /* \"contracts/Lottery.sol\":1393:1419  new address payable [] (0) */\n      0xffffffffffffffff\n      dup2\n      gt\n      iszero\n      tag_56\n      jumpi\n      tag_57\n      tag_58\n      jump\t// in\n    tag_57:\n    tag_56:\n      mload(0x40)\n      swap1\n      dup1\n      dup3\n      mstore\n      dup1\n      0x20\n      mul\n      0x20\n      add\n      dup3\n      add\n      0x40\n      mstore\n      dup1\n      iszero\n      tag_59\n      jumpi\n      dup2\n      0x20\n      add\n      0x20\n      dup3\n      mul\n      dup1\n      calldatasize\n      dup4\n      calldatacopy\n      dup1\n      dup3\n      add\n      swap2\n      pop\n      pop\n      swap1\n      pop\n    tag_59:\n      pop\n        /* \"contracts/Lottery.sol\":1383:1390  players */\n      0x00\n        /* \"contracts/Lottery.sol\":1383:1419  players = new address payable [] (0) */\n      swap1\n      dup1\n      mload\n      swap1\n      0x20\n      add\n      swap1\n      tag_60\n      swap3\n      swap2\n      swap1\n      tag_61\n      jump\t// in\n    tag_60:\n      pop\n        /* \"contracts/Lottery.sol\":1451:1458  players */\n      0x00\n        /* \"contracts/Lottery.sol\":1464:1471  manager */\n      0x01\n      0x00\n      swap1\n      sload\n      swap1\n      0x0100\n      exp\n      swap1\n      div\n      0xffffffffffffffffffffffffffffffffffffffff\n      and\n        /* \"contracts/Lottery.sol\":1451:1472  players.push(manager) */\n      swap1\n      dup1\n      0x01\n      dup2\n      sload\n      add\n      dup1\n      dup3\n      sstore\n      dup1\n      swap2\n      pop\n      pop\n      0x01\n      swap1\n      sub\n      swap1\n      0x00\n      mstore\n      keccak256(0x00, 0x20)\n      add\n      0x00\n      swap1\n      swap2\n      swap1\n      swap2\n      swap1\n      swap2\n      0x0100\n      exp\n      dup2\n      sload\n      dup2\n      0xffffffffffffffffffffffffffffffffffffffff\n      mul\n      not\n      and\n      swap1\n      dup4\n      0xffffffffffffffffffffffffffffffffffffffff\n      and\n      mul\n      or\n      swap1\n      sstore\n      pop\n        /* \"contracts/Lottery.sol\":878:1479  {... */\n      pop\n      pop\n      pop\n      pop\n      pop\n        /* \"contracts/Lottery.sol\":840:1479  function pickWinner() public onlyOwner{... */\n      jump\t// out\n        /* \"contracts/Lottery.sol\":92:124  address payable[] public players */\n    tag_31:\n      0x00\n      dup2\n      dup2\n      sload\n      dup2\n      lt\n      tag_63\n      jumpi\n      0x00\n      dup1\n      revert\n    tag_63:\n      swap1\n      0x00\n      mstore\n      keccak256(0x00, 0x20)\n      add\n      0x00\n      swap2\n      pop\n      sload\n      swap1\n      0x0100\n      exp\n      swap1\n      div\n      0xffffffffffffffffffffffffffffffffffffffff\n      and\n      dup2\n      jump\t// out\n        /* \"contracts/Lottery.sol\":680:834  function random() internal view returns (uint){... */\n    tag_41:\n        /* \"contracts/Lottery.sol\":721:725  uint */\n      0x00\n        /* \"contracts/Lottery.sol\":775:791  block.difficulty */\n      difficulty\n        /* \"contracts/Lottery.sol\":793:808  block.timestamp */\n      timestamp\n        /* \"contracts/Lottery.sol\":810:817  players */\n      0x00\n        /* \"contracts/Lottery.sol\":810:824  players.length */\n      dup1\n      sload\n      swap1\n      pop\n        /* \"contracts/Lottery.sol\":758:825  abi.encodePacked(block.difficulty, block.timestamp, players.length) */\n      add(0x20, mload(0x40))\n      tag_66\n      swap4\n      swap3\n      swap2\n      swap1\n      tag_67\n      jump\t// in\n    tag_66:\n      mload(0x40)\n      0x20\n      dup2\n      dup4\n      sub\n      sub\n      dup2\n      mstore\n      swap1\n      0x40\n      mstore\n        /* \"contracts/Lottery.sol\":748:826  keccak256(abi.encodePacked(block.difficulty, block.timestamp, players.length)) */\n      dup1\n      mload\n      swap1\n      0x20\n      add\n      keccak256\n        /* \"contracts/Lottery.sol\":743:827  uint(keccak256(abi.encodePacked(block.difficulty, block.timestamp, players.length))) */\n      0x00\n      shr\n        /* \"contracts/Lottery.sol\":736:827  return uint(keccak256(abi.encodePacked(block.difficulty, block.timestamp, players.length))) */\n      swap1\n      pop\n        /* \"contracts/Lottery.sol\":680:834  function random() internal view returns (uint){... */\n      swap1\n      jump\t// out\n    tag_61:\n      dup3\n      dup1\n      sload\n      dup3\n      dup3\n      sstore\n      swap1\n      0x00\n      mstore\n      keccak256(0x00, 0x20)\n      swap1\n      dup2\n      add\n      swap3\n      dup3\n      iszero\n      tag_68\n      jumpi\n      swap2\n      0x20\n      mul\n      dup3\n      add\n    tag_69:\n      dup3\n      dup2\n      gt\n      iszero\n      tag_70\n      jumpi\n      dup3\n      mload\n      dup3\n      exp(0x0100, 0x00)\n      dup2\n      sload\n      dup2\n      0xffffffffffffffffffffffffffffffffffffffff\n      mul\n      not\n      and\n      swap1\n      dup4\n      0xffffffffffffffffffffffffffffffffffffffff\n      and\n      mul\n      or\n      swap1\n      sstore\n      pop\n      swap2\n      0x20\n      add\n      swap2\n      swap1\n      0x01\n      add\n      swap1\n      jump(tag_69)\n    tag_70:\n    tag_68:\n      pop\n      swap1\n      pop\n      tag_71\n      swap2\n      swap1\n      tag_72\n      jump\t// in\n    tag_71:\n      pop\n      swap1\n      jump\t// out\n    tag_72:\n    tag_73:\n      dup1\n      dup3\n      gt\n      iszero\n      tag_74\n      jumpi\n      0x00\n      dup2\n      0x00\n      swap1\n      sstore\n      pop\n      0x01\n      add\n      jump(tag_73)\n    tag_74:\n      pop\n      swap1\n      jump\t// out\n        /* \"#utility.yul\":7:146   */\n    tag_76:\n        /* \"#utility.yul\":53:58   */\n      0x00\n        /* \"#utility.yul\":91:97   */\n      dup2\n        /* \"#utility.yul\":78:98   */\n      calldataload\n        /* \"#utility.yul\":69:98   */\n      swap1\n      pop\n        /* \"#utility.yul\":107:140   */\n      tag_78\n        /* \"#utility.yul\":134:139   */\n      dup2\n        /* \"#utility.yul\":107:140   */\n      tag_79\n      jump\t// in\n    tag_78:\n        /* \"#utility.yul\":7:146   */\n      swap3\n      swap2\n      pop\n      pop\n      jump\t// out\n        /* \"#utility.yul\":152:481   */\n    tag_30:\n        /* \"#utility.yul\":211:217   */\n      0x00\n        /* \"#utility.yul\":260:262   */\n      0x20\n        /* \"#utility.yul\":248:257   */\n      dup3\n        /* \"#utility.yul\":239:246   */\n      dup5\n        /* \"#utility.yul\":235:258   */\n      sub\n        /* \"#utility.yul\":231:263   */\n      slt\n        /* \"#utility.yul\":228:347   */\n      iszero\n      tag_81\n      jumpi\n        /* \"#utility.yul\":266:345   */\n      tag_82\n      tag_83\n      jump\t// in\n    tag_82:\n        /* \"#utility.yul\":228:347   */\n    tag_81:\n        /* \"#utility.yul\":386:387   */\n      0x00\n        /* \"#utility.yul\":411:464   */\n      tag_84\n        /* \"#utility.yul\":456:463   */\n      dup5\n        /* \"#utility.yul\":447:453   */\n      dup3\n        /* \"#utility.yul\":436:445   */\n      dup6\n        /* \"#utility.yul\":432:454   */\n      add\n        /* \"#utility.yul\":411:464   */\n      tag_76\n      jump\t// in\n    tag_84:\n        /* \"#utility.yul\":401:464   */\n      swap2\n      pop\n        /* \"#utility.yul\":357:474   */\n      pop\n        /* \"#utility.yul\":152:481   */\n      swap3\n      swap2\n      pop\n      pop\n      jump\t// out\n        /* \"#utility.yul\":487:629   */\n    tag_85:\n        /* \"#utility.yul\":590:622   */\n      tag_87\n        /* \"#utility.yul\":616:621   */\n      dup2\n        /* \"#utility.yul\":590:622   */\n      tag_88\n      jump\t// in\n    tag_87:\n        /* \"#utility.yul\":585:588   */\n      dup3\n        /* \"#utility.yul\":578:623   */\n      mstore\n        /* \"#utility.yul\":487:629   */\n      pop\n      pop\n      jump\t// out\n        /* \"#utility.yul\":635:1001   */\n    tag_89:\n        /* \"#utility.yul\":777:780   */\n      0x00\n        /* \"#utility.yul\":798:865   */\n      tag_91\n        /* \"#utility.yul\":862:864   */\n      0x35\n        /* \"#utility.yul\":857:860   */\n      dup4\n        /* \"#utility.yul\":798:865   */\n      tag_92\n      jump\t// in\n    tag_91:\n        /* \"#utility.yul\":791:865   */\n      swap2\n      pop\n        /* \"#utility.yul\":874:967   */\n      tag_93\n        /* \"#utility.yul\":963:966   */\n      dup3\n        /* \"#utility.yul\":874:967   */\n      tag_94\n      jump\t// in\n    tag_93:\n        /* \"#utility.yul\":992:994   */\n      0x40\n        /* \"#utility.yul\":987:990   */\n      dup3\n        /* \"#utility.yul\":983:995   */\n      add\n        /* \"#utility.yul\":976:995   */\n      swap1\n      pop\n        /* \"#utility.yul\":635:1001   */\n      swap2\n      swap1\n      pop\n      jump\t// out\n        /* \"#utility.yul\":1007:1125   */\n    tag_95:\n        /* \"#utility.yul\":1094:1118   */\n      tag_97\n        /* \"#utility.yul\":1112:1117   */\n      dup2\n        /* \"#utility.yul\":1094:1118   */\n      tag_98\n      jump\t// in\n    tag_97:\n        /* \"#utility.yul\":1089:1092   */\n      dup3\n        /* \"#utility.yul\":1082:1119   */\n      mstore\n        /* \"#utility.yul\":1007:1125   */\n      pop\n      pop\n      jump\t// out\n        /* \"#utility.yul\":1131:1288   */\n    tag_99:\n        /* \"#utility.yul\":1236:1281   */\n      tag_101\n        /* \"#utility.yul\":1256:1280   */\n      tag_102\n        /* \"#utility.yul\":1274:1279   */\n      dup3\n        /* \"#utility.yul\":1256:1280   */\n      tag_98\n      jump\t// in\n    tag_102:\n        /* \"#utility.yul\":1236:1281   */\n      tag_103\n      jump\t// in\n    tag_101:\n        /* \"#utility.yul\":1231:1234   */\n      dup3\n        /* \"#utility.yul\":1224:1282   */\n      mstore\n        /* \"#utility.yul\":1131:1288   */\n      pop\n      pop\n      jump\t// out\n        /* \"#utility.yul\":1294:1832   */\n    tag_67:\n        /* \"#utility.yul\":1462:1465   */\n      0x00\n        /* \"#utility.yul\":1477:1552   */\n      tag_105\n        /* \"#utility.yul\":1548:1551   */\n      dup3\n        /* \"#utility.yul\":1539:1545   */\n      dup7\n        /* \"#utility.yul\":1477:1552   */\n      tag_99\n      jump\t// in\n    tag_105:\n        /* \"#utility.yul\":1577:1579   */\n      0x20\n        /* \"#utility.yul\":1572:1575   */\n      dup3\n        /* \"#utility.yul\":1568:1580   */\n      add\n        /* \"#utility.yul\":1561:1580   */\n      swap2\n      pop\n        /* \"#utility.yul\":1590:1665   */\n      tag_106\n        /* \"#utility.yul\":1661:1664   */\n      dup3\n        /* \"#utility.yul\":1652:1658   */\n      dup6\n        /* \"#utility.yul\":1590:1665   */\n      tag_99\n      jump\t// in\n    tag_106:\n        /* \"#utility.yul\":1690:1692   */\n      0x20\n        /* \"#utility.yul\":1685:1688   */\n      dup3\n        /* \"#utility.yul\":1681:1693   */\n      add\n        /* \"#utility.yul\":1674:1693   */\n      swap2\n      pop\n        /* \"#utility.yul\":1703:1778   */\n      tag_107\n        /* \"#utility.yul\":1774:1777   */\n      dup3\n        /* \"#utility.yul\":1765:1771   */\n      dup5\n        /* \"#utility.yul\":1703:1778   */\n      tag_99\n      jump\t// in\n    tag_107:\n        /* \"#utility.yul\":1803:1805   */\n      0x20\n        /* \"#utility.yul\":1798:1801   */\n      dup3\n        /* \"#utility.yul\":1794:1806   */\n      add\n        /* \"#utility.yul\":1787:1806   */\n      swap2\n      pop\n        /* \"#utility.yul\":1823:1826   */\n      dup2\n        /* \"#utility.yul\":1816:1826   */\n      swap1\n      pop\n        /* \"#utility.yul\":1294:1832   */\n      swap5\n      swap4\n      pop\n      pop\n      pop\n      pop\n      jump\t// out\n        /* \"#utility.yul\":1838:2092   */\n    tag_23:\n        /* \"#utility.yul\":1947:1951   */\n      0x00\n        /* \"#utility.yul\":1985:1987   */\n      0x20\n        /* \"#utility.yul\":1974:1983   */\n      dup3\n        /* \"#utility.yul\":1970:1988   */\n      add\n        /* \"#utility.yul\":1962:1988   */\n      swap1\n      pop\n        /* \"#utility.yul\":1998:2085   */\n      tag_109\n        /* \"#utility.yul\":2082:2083   */\n      0x00\n        /* \"#utility.yul\":2071:2080   */\n      dup4\n        /* \"#utility.yul\":2067:2084   */\n      add\n        /* \"#utility.yul\":2058:2064   */\n      dup5\n        /* \"#utility.yul\":1998:2085   */\n      tag_85\n      jump\t// in\n    tag_109:\n        /* \"#utility.yul\":1838:2092   */\n      swap3\n      swap2\n      pop\n      pop\n      jump\t// out\n        /* \"#utility.yul\":2098:2517   */\n    tag_12:\n        /* \"#utility.yul\":2264:2268   */\n      0x00\n        /* \"#utility.yul\":2302:2304   */\n      0x20\n        /* \"#utility.yul\":2291:2300   */\n      dup3\n        /* \"#utility.yul\":2287:2305   */\n      add\n        /* \"#utility.yul\":2279:2305   */\n      swap1\n      pop\n        /* \"#utility.yul\":2351:2360   */\n      dup2\n        /* \"#utility.yul\":2345:2349   */\n      dup2\n        /* \"#utility.yul\":2341:2361   */\n      sub\n        /* \"#utility.yul\":2337:2338   */\n      0x00\n        /* \"#utility.yul\":2326:2335   */\n      dup4\n        /* \"#utility.yul\":2322:2339   */\n      add\n        /* \"#utility.yul\":2315:2362   */\n      mstore\n        /* \"#utility.yul\":2379:2510   */\n      tag_111\n        /* \"#utility.yul\":2505:2509   */\n      dup2\n        /* \"#utility.yul\":2379:2510   */\n      tag_89\n      jump\t// in\n    tag_111:\n        /* \"#utility.yul\":2371:2510   */\n      swap1\n      pop\n        /* \"#utility.yul\":2098:2517   */\n      swap2\n      swap1\n      pop\n      jump\t// out\n        /* \"#utility.yul\":2523:2745   */\n    tag_18:\n        /* \"#utility.yul\":2616:2620   */\n      0x00\n        /* \"#utility.yul\":2654:2656   */\n      0x20\n        /* \"#utility.yul\":2643:2652   */\n      dup3\n        /* \"#utility.yul\":2639:2657   */\n      add\n        /* \"#utility.yul\":2631:2657   */\n      swap1\n      pop\n        /* \"#utility.yul\":2667:2738   */\n      tag_113\n        /* \"#utility.yul\":2735:2736   */\n      0x00\n        /* \"#utility.yul\":2724:2733   */\n      dup4\n        /* \"#utility.yul\":2720:2737   */\n      add\n        /* \"#utility.yul\":2711:2717   */\n      dup5\n        /* \"#utility.yul\":2667:2738   */\n      tag_95\n      jump\t// in\n    tag_113:\n        /* \"#utility.yul\":2523:2745   */\n      swap3\n      swap2\n      pop\n      pop\n      jump\t// out\n        /* \"#utility.yul\":2832:3001   */\n    tag_92:\n        /* \"#utility.yul\":2916:2927   */\n      0x00\n        /* \"#utility.yul\":2950:2956   */\n      dup3\n        /* \"#utility.yul\":2945:2948   */\n      dup3\n        /* \"#utility.yul\":2938:2957   */\n      mstore\n        /* \"#utility.yul\":2990:2994   */\n      0x20\n        /* \"#utility.yul\":2985:2988   */\n      dup3\n        /* \"#utility.yul\":2981:2995   */\n      add\n        /* \"#utility.yul\":2966:2995   */\n      swap1\n      pop\n        /* \"#utility.yul\":2832:3001   */\n      swap3\n      swap2\n      pop\n      pop\n      jump\t// out\n        /* \"#utility.yul\":3007:3355   */\n    tag_49:\n        /* \"#utility.yul\":3047:3054   */\n      0x00\n        /* \"#utility.yul\":3070:3090   */\n      tag_118\n        /* \"#utility.yul\":3088:3089   */\n      dup3\n        /* \"#utility.yul\":3070:3090   */\n      tag_98\n      jump\t// in\n    tag_118:\n        /* \"#utility.yul\":3065:3090   */\n      swap2\n      pop\n        /* \"#utility.yul\":3104:3124   */\n      tag_119\n        /* \"#utility.yul\":3122:3123   */\n      dup4\n        /* \"#utility.yul\":3104:3124   */\n      tag_98\n      jump\t// in\n    tag_119:\n        /* \"#utility.yul\":3099:3124   */\n      swap3\n      pop\n        /* \"#utility.yul\":3292:3293   */\n      dup2\n        /* \"#utility.yul\":3224:3290   */\n      0xffffffffffffffffffffffffffffffffffffffffffffffffffffffffffffffff\n        /* \"#utility.yul\":3220:3294   */\n      div\n        /* \"#utility.yul\":3217:3218   */\n      dup4\n        /* \"#utility.yul\":3214:3295   */\n      gt\n        /* \"#utility.yul\":3209:3210   */\n      dup3\n        /* \"#utility.yul\":3202:3211   */\n      iszero\n        /* \"#utility.yul\":3195:3212   */\n      iszero\n        /* \"#utility.yul\":3191:3296   */\n      and\n        /* \"#utility.yul\":3188:3319   */\n      iszero\n      tag_120\n      jumpi\n        /* \"#utility.yul\":3299:3317   */\n      tag_121\n      tag_122\n      jump\t// in\n    tag_121:\n        /* \"#utility.yul\":3188:3319   */\n    tag_120:\n        /* \"#utility.yul\":3347:3348   */\n      dup3\n        /* \"#utility.yul\":3344:3345   */\n      dup3\n        /* \"#utility.yul\":3340:3349   */\n      mul\n        /* \"#utility.yul\":3329:3349   */\n      swap1\n      pop\n        /* \"#utility.yul\":3007:3355   */\n      swap3\n      swap2\n      pop\n      pop\n      jump\t// out\n        /* \"#utility.yul\":3361:3552   */\n    tag_51:\n        /* \"#utility.yul\":3401:3405   */\n      0x00\n        /* \"#utility.yul\":3421:3441   */\n      tag_124\n        /* \"#utility.yul\":3439:3440   */\n      dup3\n        /* \"#utility.yul\":3421:3441   */\n      tag_98\n      jump\t// in\n    tag_124:\n        /* \"#utility.yul\":3416:3441   */\n      swap2\n      pop\n        /* \"#utility.yul\":3455:3475   */\n      tag_125\n        /* \"#utility.yul\":3473:3474   */\n      dup4\n        /* \"#utility.yul\":3455:3475   */\n      tag_98\n      jump\t// in\n    tag_125:\n        /* \"#utility.yul\":3450:3475   */\n      swap3\n      pop\n        /* \"#utility.yul\":3494:3495   */\n      dup3\n        /* \"#utility.yul\":3491:3492   */\n      dup3\n        /* \"#utility.yul\":3488:3496   */\n      lt\n        /* \"#utility.yul\":3485:3519   */\n      iszero\n      tag_126\n      jumpi\n        /* \"#utility.yul\":3499:3517   */\n      tag_127\n      tag_122\n      jump\t// in\n    tag_127:\n        /* \"#utility.yul\":3485:3519   */\n    tag_126:\n        /* \"#utility.yul\":3544:3545   */\n      dup3\n        /* \"#utility.yul\":3541:3542   */\n      dup3\n        /* \"#utility.yul\":3537:3546   */\n      sub\n        /* \"#utility.yul\":3529:3546   */\n      swap1\n      pop\n        /* \"#utility.yul\":3361:3552   */\n      swap3\n      swap2\n      pop\n      pop\n      jump\t// out\n        /* \"#utility.yul\":3558:3662   */\n    tag_88:\n        /* \"#utility.yul\":3603:3610   */\n      0x00\n        /* \"#utility.yul\":3632:3656   */\n      tag_129\n        /* \"#utility.yul\":3650:3655   */\n      dup3\n        /* \"#utility.yul\":3632:3656   */\n      tag_130\n      jump\t// in\n    tag_129:\n        /* \"#utility.yul\":3621:3656   */\n      swap1\n      pop\n        /* \"#utility.yul\":3558:3662   */\n      swap2\n      swap1\n      pop\n      jump\t// out\n        /* \"#utility.yul\":3668:3794   */\n    tag_130:\n        /* \"#utility.yul\":3705:3712   */\n      0x00\n        /* \"#utility.yul\":3745:3787   */\n      0xffffffffffffffffffffffffffffffffffffffff\n        /* \"#utility.yul\":3738:3743   */\n      dup3\n        /* \"#utility.yul\":3734:3788   */\n      and\n        /* \"#utility.yul\":3723:3788   */\n      swap1\n      pop\n        /* \"#utility.yul\":3668:3794   */\n      swap2\n      swap1\n      pop\n      jump\t// out\n        /* \"#utility.yul\":3800:3877   */\n    tag_98:\n        /* \"#utility.yul\":3837:3844   */\n      0x00\n        /* \"#utility.yul\":3866:3871   */\n      dup2\n        /* \"#utility.yul\":3855:3871   */\n      swap1\n      pop\n        /* \"#utility.yul\":3800:3877   */\n      swap2\n      swap1\n      pop\n      jump\t// out\n        /* \"#utility.yul\":3883:3962   */\n    tag_103:\n        /* \"#utility.yul\":3922:3929   */\n      0x00\n        /* \"#utility.yul\":3951:3956   */\n      dup2\n        /* \"#utility.yul\":3940:3956   */\n      swap1\n      pop\n        /* \"#utility.yul\":3883:3962   */\n      swap2\n      swap1\n      pop\n      jump\t// out\n        /* \"#utility.yul\":3968:4144   */\n    tag_43:\n        /* \"#utility.yul\":4000:4001   */\n      0x00\n        /* \"#utility.yul\":4017:4037   */\n      tag_135\n        /* \"#utility.yul\":4035:4036   */\n      dup3\n        /* \"#utility.yul\":4017:4037   */\n      tag_98\n      jump\t// in\n    tag_135:\n        /* \"#utility.yul\":4012:4037   */\n      swap2\n      pop\n        /* \"#utility.yul\":4051:4071   */\n      tag_136\n        /* \"#utility.yul\":4069:4070   */\n      dup4\n        /* \"#utility.yul\":4051:4071   */\n      tag_98\n      jump\t// in\n    tag_136:\n        /* \"#utility.yul\":4046:4071   */\n      swap3\n      pop\n        /* \"#utility.yul\":4090:4091   */\n      dup3\n        /* \"#utility.yul\":4080:4115   */\n      tag_137\n      jumpi\n        /* \"#utility.yul\":4095:4113   */\n      tag_138\n      tag_139\n      jump\t// in\n    tag_138:\n        /* \"#utility.yul\":4080:4115   */\n    tag_137:\n        /* \"#utility.yul\":4136:4137   */\n      dup3\n        /* \"#utility.yul\":4133:4134   */\n      dup3\n        /* \"#utility.yul\":4129:4138   */\n      mod\n        /* \"#utility.yul\":4124:4138   */\n      swap1\n      pop\n        /* \"#utility.yul\":3968:4144   */\n      swap3\n      swap2\n      pop\n      pop\n      jump\t// out\n        /* \"#utility.yul\":4150:4330   */\n    tag_122:\n        /* \"#utility.yul\":4198:4275   */\n      0x4e487b7100000000000000000000000000000000000000000000000000000000\n        /* \"#utility.yul\":4195:4196   */\n      0x00\n        /* \"#utility.yul\":4188:4276   */\n      mstore\n        /* \"#utility.yul\":4295:4299   */\n      0x11\n        /* \"#utility.yul\":4292:4293   */\n      0x04\n        /* \"#utility.yul\":4285:4300   */\n      mstore\n        /* \"#utility.yul\":4319:4323   */\n      0x24\n        /* \"#utility.yul\":4316:4317   */\n      0x00\n        /* \"#utility.yul\":4309:4324   */\n      revert\n        /* \"#utility.yul\":4336:4516   */\n    tag_139:\n        /* \"#utility.yul\":4384:4461   */\n      0x4e487b7100000000000000000000000000000000000000000000000000000000\n        /* \"#utility.yul\":4381:4382   */\n      0x00\n        /* \"#utility.yul\":4374:4462   */\n      mstore\n        /* \"#utility.yul\":4481:4485   */\n      0x12\n        /* \"#utility.yul\":4478:4479   */\n      0x04\n        /* \"#utility.yul\":4471:4486   */\n      mstore\n        /* \"#utility.yul\":4505:4509   */\n      0x24\n        /* \"#utility.yul\":4502:4503   */\n      0x00\n        /* \"#utility.yul\":4495:4510   */\n      revert\n        /* \"#utility.yul\":4522:4702   */\n    tag_46:\n        /* \"#utility.yul\":4570:4647   */\n      0x4e487b7100000000000000000000000000000000000000000000000000000000\n        /* \"#utility.yul\":4567:4568   */\n      0x00\n        /* \"#utility.yul\":4560:4648   */\n      mstore\n        /* \"#utility.yul\":4667:4671   */\n      0x32\n        /* \"#utility.yul\":4664:4665   */\n      0x04\n        /* \"#utility.yul\":4657:4672   */\n      mstore\n        /* \"#utility.yul\":4691:4695   */\n      0x24\n        /* \"#utility.yul\":4688:4689   */\n      0x00\n        /* \"#utility.yul\":4681:4696   */\n      revert\n        /* \"#utility.yul\":4708:4888   */\n    tag_58:\n        /* \"#utility.yul\":4756:4833   */\n      0x4e487b7100000000000000000000000000000000000000000000000000000000\n        /* \"#utility.yul\":4753:4754   */\n      0x00\n        /* \"#utility.yul\":4746:4834   */\n      mstore\n        /* \"#utility.yul\":4853:4857   */\n      0x41\n        /* \"#utility.yul\":4850:4851   */\n      0x04\n        /* \"#utility.yul\":4843:4858   */\n      mstore\n        /* \"#utility.yul\":4877:4881   */\n      0x24\n        /* \"#utility.yul\":4874:4875   */\n      0x00\n        /* \"#utility.yul\":4867:4882   */\n      revert\n        /* \"#utility.yul\":5017:5134   */\n    tag_83:\n        /* \"#utility.yul\":5126:5127   */\n      0x00\n        /* \"#utility.yul\":5123:5124   */\n      dup1\n        /* \"#utility.yul\":5116:5128   */\n      revert\n        /* \"#utility.yul\":5140:5380   */\n    tag_94:\n        /* \"#utility.yul\":5280:5314   */\n      0x5468697320636f6e7472616374206f6e6c792061636365707473207472616e73\n        /* \"#utility.yul\":5276:5277   */\n      0x00\n        /* \"#utility.yul\":5268:5274   */\n      dup3\n        /* \"#utility.yul\":5264:5278   */\n      add\n        /* \"#utility.yul\":5257:5315   */\n      mstore\n        /* \"#utility.yul\":5349:5372   */\n      0x616374696f6e73206f6620302e30312065746865720000000000000000000000\n        /* \"#utility.yul\":5344:5346   */\n      0x20\n        /* \"#utility.yul\":5336:5342   */\n      dup3\n        /* \"#utility.yul\":5332:5347   */\n      add\n        /* \"#utility.yul\":5325:5373   */\n      mstore\n        /* \"#utility.yul\":5140:5380   */\n      pop\n      jump\t// out\n        /* \"#utility.yul\":5386:5508   */\n    tag_79:\n        /* \"#utility.yul\":5459:5483   */\n      tag_149\n        /* \"#utility.yul\":5477:5482   */\n      dup2\n        /* \"#utility.yul\":5459:5483   */\n      tag_98\n      jump\t// in\n    tag_149:\n        /* \"#utility.yul\":5452:5457   */\n      dup2\n        /* \"#utility.yul\":5449:5484   */\n      eq\n        /* \"#utility.yul\":5439:5502   */\n      tag_150\n      jumpi\n        /* \"#utility.yul\":5498:5499   */\n      0x00\n        /* \"#utility.yul\":5495:5496   */\n      dup1\n        /* \"#utility.yul\":5488:5500   */\n      revert\n        /* \"#utility.yul\":5439:5502   */\n    tag_150:\n        /* \"#utility.yul\":5386:5508   */\n      pop\n      jump\t// out\n\n    auxdata: 0xa2646970667358221220037aad8b36945b57f5de1a85a4e28eb9dcef80104489da223583ea165d03e64464736f6c63430008070033\n}\n",
				"bytecode": {
					"linkReferences": {},
					"object": "608060405234801561001057600080fd5b5033600160006101000a81548173ffffffffffffffffffffffffffffffffffffffff021916908373ffffffffffffffffffffffffffffffffffffffff1602179055506000600160009054906101000a900473ffffffffffffffffffffffffffffffffffffffff169080600181540180825580915050600190039060005260206000200160009091909190916101000a81548173ffffffffffffffffffffffffffffffffffffffff021916908373ffffffffffffffffffffffffffffffffffffffff1602179055506109d4806100e66000396000f3fe6080604052600436106100435760003560e01c806312065fe014610156578063481c6a75146101815780635d495aea146101ac578063f71d96cb146101c357610151565b3661015157600160009054906101000a900473ffffffffffffffffffffffffffffffffffffffff1673ffffffffffffffffffffffffffffffffffffffff163373ffffffffffffffffffffffffffffffffffffffff1614156100a357600080fd5b662386f26fc1000034146100ec576040517f08c379a00000000000000000000000000000000000000000000000000000000081526004016100e390610726565b60405180910390fd5b6000339080600181540180825580915050600190039060005260206000200160009091909190916101000a81548173ffffffffffffffffffffffffffffffffffffffff021916908373ffffffffffffffffffffffffffffffffffffffff160217905550005b600080fd5b34801561016257600080fd5b5061016b610200565b6040516101789190610746565b60405180910390f35b34801561018d57600080fd5b50610196610262565b6040516101a3919061070b565b60405180910390f35b3480156101b857600080fd5b506101c1610288565b005b3480156101cf57600080fd5b506101ea60048036038101906101e59190610649565b610514565b6040516101f7919061070b565b60405180910390f35b6000600160009054906101000a900473ffffffffffffffffffffffffffffffffffffffff1673ffffffffffffffffffffffffffffffffffffffff163373ffffffffffffffffffffffffffffffffffffffff161461025c57600080fd5b47905090565b600160009054906101000a900473ffffffffffffffffffffffffffffffffffffffff1681565b600160009054906101000a900473ffffffffffffffffffffffffffffffffffffffff1673ffffffffffffffffffffffffffffffffffffffff163373ffffffffffffffffffffffffffffffffffffffff16146102e257600080fd5b600a60008054905010156102f557600080fd5b60006102ff610553565b905060008080549050826103139190610846565b9050600080828154811061032a576103296108d5565b5b9060005260206000200160009054906101000a900473ffffffffffffffffffffffffffffffffffffffff16905060006009476103669190610772565b90506000814761037691906107cc565b90508273ffffffffffffffffffffffffffffffffffffffff166108fc839081150290604051600060405180830381858888f193505050501580156103be573d6000803e3d6000fd5b50600160009054906101000a900473ffffffffffffffffffffffffffffffffffffffff1673ffffffffffffffffffffffffffffffffffffffff166108fc829081150290604051600060405180830381858888f19350505050158015610427573d6000803e3d6000fd5b50600067ffffffffffffffff81111561044357610442610904565b5b6040519080825280602002602001820160405280156104715781602001602082028036833780820191505090505b506000908051906020019061048792919061058d565b506000600160009054906101000a900473ffffffffffffffffffffffffffffffffffffffff169080600181540180825580915050600190039060005260206000200160009091909190916101000a81548173ffffffffffffffffffffffffffffffffffffffff021916908373ffffffffffffffffffffffffffffffffffffffff1602179055505050505050565b6000818154811061052457600080fd5b906000526020600020016000915054906101000a900473ffffffffffffffffffffffffffffffffffffffff1681565b6000444260008054905060405160200161056f939291906106ce565b6040516020818303038152906040528051906020012060001c905090565b828054828255906000526020600020908101928215610606579160200282015b828111156106055782518260006101000a81548173ffffffffffffffffffffffffffffffffffffffff021916908373ffffffffffffffffffffffffffffffffffffffff160217905550916020019190600101906105ad565b5b5090506106139190610617565b5090565b5b80821115610630576000816000905550600101610618565b5090565b60008135905061064381610987565b92915050565b60006020828403121561065f5761065e610933565b5b600061066d84828501610634565b91505092915050565b61067f81610800565b82525050565b6000610692603583610761565b915061069d82610938565b604082019050919050565b6106b181610832565b82525050565b6106c86106c382610832565b61083c565b82525050565b60006106da82866106b7565b6020820191506106ea82856106b7565b6020820191506106fa82846106b7565b602082019150819050949350505050565b60006020820190506107206000830184610676565b92915050565b6000602082019050818103600083015261073f81610685565b9050919050565b600060208201905061075b60008301846106a8565b92915050565b600082825260208201905092915050565b600061077d82610832565b915061078883610832565b9250817fffffffffffffffffffffffffffffffffffffffffffffffffffffffffffffffff04831182151516156107c1576107c0610877565b5b828202905092915050565b60006107d782610832565b91506107e283610832565b9250828210156107f5576107f4610877565b5b828203905092915050565b600061080b82610812565b9050919050565b600073ffffffffffffffffffffffffffffffffffffffff82169050919050565b6000819050919050565b6000819050919050565b600061085182610832565b915061085c83610832565b92508261086c5761086b6108a6565b5b828206905092915050565b7f4e487b7100000000000000000000000000000000000000000000000000000000600052601160045260246000fd5b7f4e487b7100000000000000000000000000000000000000000000000000000000600052601260045260246000fd5b7f4e487b7100000000000000000000000000000000000000000000000000000000600052603260045260246000fd5b7f4e487b7100000000000000000000000000000000000000000000000000000000600052604160045260246000fd5b600080fd5b7f5468697320636f6e7472616374206f6e6c792061636365707473207472616e7360008201527f616374696f6e73206f6620302e30312065746865720000000000000000000000602082015250565b61099081610832565b811461099b57600080fd5b5056fea2646970667358221220037aad8b36945b57f5de1a85a4e28eb9dcef80104489da223583ea165d03e64464736f6c63430008070033",
					"opcodes": "PUSH1 0x80 PUSH1 0x40 MSTORE CALLVALUE DUP1 ISZERO PUSH2 0x10 JUMPI PUSH1 0x0 DUP1 REVERT JUMPDEST POP CALLER PUSH1 0x1 PUSH1 0x0 PUSH2 0x100 EXP DUP2 SLOAD DUP2 PUSH20 0xFFFFFFFFFFFFFFFFFFFFFFFFFFFFFFFFFFFFFFFF MUL NOT AND SWAP1 DUP4 PUSH20 0xFFFFFFFFFFFFFFFFFFFFFFFFFFFFFFFFFFFFFFFF AND MUL OR SWAP1 SSTORE POP PUSH1 0x0 PUSH1 0x1 PUSH1 0x0 SWAP1 SLOAD SWAP1 PUSH2 0x100 EXP SWAP1 DIV PUSH20 0xFFFFFFFFFFFFFFFFFFFFFFFFFFFFFFFFFFFFFFFF AND SWAP1 DUP1 PUSH1 0x1 DUP2 SLOAD ADD DUP1 DUP3 SSTORE DUP1 SWAP2 POP POP PUSH1 0x1 SWAP1 SUB SWAP1 PUSH1 0x0 MSTORE PUSH1 0x20 PUSH1 0x0 KECCAK256 ADD PUSH1 0x0 SWAP1 SWAP2 SWAP1 SWAP2 SWAP1 SWAP2 PUSH2 0x100 EXP DUP2 SLOAD DUP2 PUSH20 0xFFFFFFFFFFFFFFFFFFFFFFFFFFFFFFFFFFFFFFFF MUL NOT AND SWAP1 DUP4 PUSH20 0xFFFFFFFFFFFFFFFFFFFFFFFFFFFFFFFFFFFFFFFF AND MUL OR SWAP1 SSTORE POP PUSH2 0x9D4 DUP1 PUSH2 0xE6 PUSH1 0x0 CODECOPY PUSH1 0x0 RETURN INVALID PUSH1 0x80 PUSH1 0x40 MSTORE PUSH1 0x4 CALLDATASIZE LT PUSH2 0x43 JUMPI PUSH1 0x0 CALLDATALOAD PUSH1 0xE0 SHR DUP1 PUSH4 0x12065FE0 EQ PUSH2 0x156 JUMPI DUP1 PUSH4 0x481C6A75 EQ PUSH2 0x181 JUMPI DUP1 PUSH4 0x5D495AEA EQ PUSH2 0x1AC JUMPI DUP1 PUSH4 0xF71D96CB EQ PUSH2 0x1C3 JUMPI PUSH2 0x151 JUMP JUMPDEST CALLDATASIZE PUSH2 0x151 JUMPI PUSH1 0x1 PUSH1 0x0 SWAP1 SLOAD SWAP1 PUSH2 0x100 EXP SWAP1 DIV PUSH20 0xFFFFFFFFFFFFFFFFFFFFFFFFFFFFFFFFFFFFFFFF AND PUSH20 0xFFFFFFFFFFFFFFFFFFFFFFFFFFFFFFFFFFFFFFFF AND CALLER PUSH20 0xFFFFFFFFFFFFFFFFFFFFFFFFFFFFFFFFFFFFFFFF AND EQ ISZERO PUSH2 0xA3 JUMPI PUSH1 0x0 DUP1 REVERT JUMPDEST PUSH7 0x2386F26FC10000 CALLVALUE EQ PUSH2 0xEC JUMPI PUSH1 0x40 MLOAD PUSH32 0x8C379A000000000000000000000000000000000000000000000000000000000 DUP2 MSTORE PUSH1 0x4 ADD PUSH2 0xE3 SWAP1 PUSH2 0x726 JUMP JUMPDEST PUSH1 0x40 MLOAD DUP1 SWAP2 SUB SWAP1 REVERT JUMPDEST PUSH1 0x0 CALLER SWAP1 DUP1 PUSH1 0x1 DUP2 SLOAD ADD DUP1 DUP3 SSTORE DUP1 SWAP2 POP POP PUSH1 0x1 SWAP1 SUB SWAP1 PUSH1 0x0 MSTORE PUSH1 0x20 PUSH1 0x0 KECCAK256 ADD PUSH1 0x0 SWAP1 SWAP2 SWAP1 SWAP2 SWAP1 SWAP2 PUSH2 0x100 EXP DUP2 SLOAD DUP2 PUSH20 0xFFFFFFFFFFFFFFFFFFFFFFFFFFFFFFFFFFFFFFFF MUL NOT AND SWAP1 DUP4 PUSH20 0xFFFFFFFFFFFFFFFFFFFFFFFFFFFFFFFFFFFFFFFF AND MUL OR SWAP1 SSTORE POP STOP JUMPDEST PUSH1 0x0 DUP1 REVERT JUMPDEST CALLVALUE DUP1 ISZERO PUSH2 0x162 JUMPI PUSH1 0x0 DUP1 REVERT JUMPDEST POP PUSH2 0x16B PUSH2 0x200 JUMP JUMPDEST PUSH1 0x40 MLOAD PUSH2 0x178 SWAP2 SWAP1 PUSH2 0x746 JUMP JUMPDEST PUSH1 0x40 MLOAD DUP1 SWAP2 SUB SWAP1 RETURN JUMPDEST CALLVALUE DUP1 ISZERO PUSH2 0x18D JUMPI PUSH1 0x0 DUP1 REVERT JUMPDEST POP PUSH2 0x196 PUSH2 0x262 JUMP JUMPDEST PUSH1 0x40 MLOAD PUSH2 0x1A3 SWAP2 SWAP1 PUSH2 0x70B JUMP JUMPDEST PUSH1 0x40 MLOAD DUP1 SWAP2 SUB SWAP1 RETURN JUMPDEST CALLVALUE DUP1 ISZERO PUSH2 0x1B8 JUMPI PUSH1 0x0 DUP1 REVERT JUMPDEST POP PUSH2 0x1C1 PUSH2 0x288 JUMP JUMPDEST STOP JUMPDEST CALLVALUE DUP1 ISZERO PUSH2 0x1CF JUMPI PUSH1 0x0 DUP1 REVERT JUMPDEST POP PUSH2 0x1EA PUSH1 0x4 DUP1 CALLDATASIZE SUB DUP2 ADD SWAP1 PUSH2 0x1E5 SWAP2 SWAP1 PUSH2 0x649 JUMP JUMPDEST PUSH2 0x514 JUMP JUMPDEST PUSH1 0x40 MLOAD PUSH2 0x1F7 SWAP2 SWAP1 PUSH2 0x70B JUMP JUMPDEST PUSH1 0x40 MLOAD DUP1 SWAP2 SUB SWAP1 RETURN JUMPDEST PUSH1 0x0 PUSH1 0x1 PUSH1 0x0 SWAP1 SLOAD SWAP1 PUSH2 0x100 EXP SWAP1 DIV PUSH20 0xFFFFFFFFFFFFFFFFFFFFFFFFFFFFFFFFFFFFFFFF AND PUSH20 0xFFFFFFFFFFFFFFFFFFFFFFFFFFFFFFFFFFFFFFFF AND CALLER PUSH20 0xFFFFFFFFFFFFFFFFFFFFFFFFFFFFFFFFFFFFFFFF AND EQ PUSH2 0x25C JUMPI PUSH1 0x0 DUP1 REVERT JUMPDEST SELFBALANCE SWAP1 POP SWAP1 JUMP JUMPDEST PUSH1 0x1 PUSH1 0x0 SWAP1 SLOAD SWAP1 PUSH2 0x100 EXP SWAP1 DIV PUSH20 0xFFFFFFFFFFFFFFFFFFFFFFFFFFFFFFFFFFFFFFFF AND DUP2 JUMP JUMPDEST PUSH1 0x1 PUSH1 0x0 SWAP1 SLOAD SWAP1 PUSH2 0x100 EXP SWAP1 DIV PUSH20 0xFFFFFFFFFFFFFFFFFFFFFFFFFFFFFFFFFFFFFFFF AND PUSH20 0xFFFFFFFFFFFFFFFFFFFFFFFFFFFFFFFFFFFFFFFF AND CALLER PUSH20 0xFFFFFFFFFFFFFFFFFFFFFFFFFFFFFFFFFFFFFFFF AND EQ PUSH2 0x2E2 JUMPI PUSH1 0x0 DUP1 REVERT JUMPDEST PUSH1 0xA PUSH1 0x0 DUP1 SLOAD SWAP1 POP LT ISZERO PUSH2 0x2F5 JUMPI PUSH1 0x0 DUP1 REVERT JUMPDEST PUSH1 0x0 PUSH2 0x2FF PUSH2 0x553 JUMP JUMPDEST SWAP1 POP PUSH1 0x0 DUP1 DUP1 SLOAD SWAP1 POP DUP3 PUSH2 0x313 SWAP2 SWAP1 PUSH2 0x846 JUMP JUMPDEST SWAP1 POP PUSH1 0x0 DUP1 DUP3 DUP2 SLOAD DUP2 LT PUSH2 0x32A JUMPI PUSH2 0x329 PUSH2 0x8D5 JUMP JUMPDEST JUMPDEST SWAP1 PUSH1 0x0 MSTORE PUSH1 0x20 PUSH1 0x0 KECCAK256 ADD PUSH1 0x0 SWAP1 SLOAD SWAP1 PUSH2 0x100 EXP SWAP1 DIV PUSH20 0xFFFFFFFFFFFFFFFFFFFFFFFFFFFFFFFFFFFFFFFF AND SWAP1 POP PUSH1 0x0 PUSH1 0x9 SELFBALANCE PUSH2 0x366 SWAP2 SWAP1 PUSH2 0x772 JUMP JUMPDEST SWAP1 POP PUSH1 0x0 DUP2 SELFBALANCE PUSH2 0x376 SWAP2 SWAP1 PUSH2 0x7CC JUMP JUMPDEST SWAP1 POP DUP3 PUSH20 0xFFFFFFFFFFFFFFFFFFFFFFFFFFFFFFFFFFFFFFFF AND PUSH2 0x8FC DUP4 SWAP1 DUP2 ISZERO MUL SWAP1 PUSH1 0x40 MLOAD PUSH1 0x0 PUSH1 0x40 MLOAD DUP1 DUP4 SUB DUP2 DUP6 DUP9 DUP9 CALL SWAP4 POP POP POP POP ISZERO DUP1 ISZERO PUSH2 0x3BE JUMPI RETURNDATASIZE PUSH1 0x0 DUP1 RETURNDATACOPY RETURNDATASIZE PUSH1 0x0 REVERT JUMPDEST POP PUSH1 0x1 PUSH1 0x0 SWAP1 SLOAD SWAP1 PUSH2 0x100 EXP SWAP1 DIV PUSH20 0xFFFFFFFFFFFFFFFFFFFFFFFFFFFFFFFFFFFFFFFF AND PUSH20 0xFFFFFFFFFFFFFFFFFFFFFFFFFFFFFFFFFFFFFFFF AND PUSH2 0x8FC DUP3 SWAP1 DUP2 ISZERO MUL SWAP1 PUSH1 0x40 MLOAD PUSH1 0x0 PUSH1 0x40 MLOAD DUP1 DUP4 SUB DUP2 DUP6 DUP9 DUP9 CALL SWAP4 POP POP POP POP ISZERO DUP1 ISZERO PUSH2 0x427 JUMPI RETURNDATASIZE PUSH1 0x0 DUP1 RETURNDATACOPY RETURNDATASIZE PUSH1 0x0 REVERT JUMPDEST POP PUSH1 0x0 PUSH8 0xFFFFFFFFFFFFFFFF DUP2 GT ISZERO PUSH2 0x443 JUMPI PUSH2 0x442 PUSH2 0x904 JUMP JUMPDEST JUMPDEST PUSH1 0x40 MLOAD SWAP1 DUP1 DUP3 MSTORE DUP1 PUSH1 0x20 MUL PUSH1 0x20 ADD DUP3 ADD PUSH1 0x40 MSTORE DUP1 ISZERO PUSH2 0x471 JUMPI DUP2 PUSH1 0x20 ADD PUSH1 0x20 DUP3 MUL DUP1 CALLDATASIZE DUP4 CALLDATACOPY DUP1 DUP3 ADD SWAP2 POP POP SWAP1 POP JUMPDEST POP PUSH1 0x0 SWAP1 DUP1 MLOAD SWAP1 PUSH1 0x20 ADD SWAP1 PUSH2 0x487 SWAP3 SWAP2 SWAP1 PUSH2 0x58D JUMP JUMPDEST POP PUSH1 0x0 PUSH1 0x1 PUSH1 0x0 SWAP1 SLOAD SWAP1 PUSH2 0x100 EXP SWAP1 DIV PUSH20 0xFFFFFFFFFFFFFFFFFFFFFFFFFFFFFFFFFFFFFFFF AND SWAP1 DUP1 PUSH1 0x1 DUP2 SLOAD ADD DUP1 DUP3 SSTORE DUP1 SWAP2 POP POP PUSH1 0x1 SWAP1 SUB SWAP1 PUSH1 0x0 MSTORE PUSH1 0x20 PUSH1 0x0 KECCAK256 ADD PUSH1 0x0 SWAP1 SWAP2 SWAP1 SWAP2 SWAP1 SWAP2 PUSH2 0x100 EXP DUP2 SLOAD DUP2 PUSH20 0xFFFFFFFFFFFFFFFFFFFFFFFFFFFFFFFFFFFFFFFF MUL NOT AND SWAP1 DUP4 PUSH20 0xFFFFFFFFFFFFFFFFFFFFFFFFFFFFFFFFFFFFFFFF AND MUL OR SWAP1 SSTORE POP POP POP POP POP POP JUMP JUMPDEST PUSH1 0x0 DUP2 DUP2 SLOAD DUP2 LT PUSH2 0x524 JUMPI PUSH1 0x0 DUP1 REVERT JUMPDEST SWAP1 PUSH1 0x0 MSTORE PUSH1 0x20 PUSH1 0x0 KECCAK256 ADD PUSH1 0x0 SWAP2 POP SLOAD SWAP1 PUSH2 0x100 EXP SWAP1 DIV PUSH20 0xFFFFFFFFFFFFFFFFFFFFFFFFFFFFFFFFFFFFFFFF AND DUP2 JUMP JUMPDEST PUSH1 0x0 DIFFICULTY TIMESTAMP PUSH1 0x0 DUP1 SLOAD SWAP1 POP PUSH1 0x40 MLOAD PUSH1 0x20 ADD PUSH2 0x56F SWAP4 SWAP3 SWAP2 SWAP1 PUSH2 0x6CE JUMP JUMPDEST PUSH1 0x40 MLOAD PUSH1 0x20 DUP2 DUP4 SUB SUB DUP2 MSTORE SWAP1 PUSH1 0x40 MSTORE DUP1 MLOAD SWAP1 PUSH1 0x20 ADD KECCAK256 PUSH1 0x0 SHR SWAP1 POP SWAP1 JUMP JUMPDEST DUP3 DUP1 SLOAD DUP3 DUP3 SSTORE SWAP1 PUSH1 0x0 MSTORE PUSH1 0x20 PUSH1 0x0 KECCAK256 SWAP1 DUP2 ADD SWAP3 DUP3 ISZERO PUSH2 0x606 JUMPI SWAP2 PUSH1 0x20 MUL DUP3 ADD JUMPDEST DUP3 DUP2 GT ISZERO PUSH2 0x605 JUMPI DUP3 MLOAD DUP3 PUSH1 0x0 PUSH2 0x100 EXP DUP2 SLOAD DUP2 PUSH20 0xFFFFFFFFFFFFFFFFFFFFFFFFFFFFFFFFFFFFFFFF MUL NOT AND SWAP1 DUP4 PUSH20 0xFFFFFFFFFFFFFFFFFFFFFFFFFFFFFFFFFFFFFFFF AND MUL OR SWAP1 SSTORE POP SWAP2 PUSH1 0x20 ADD SWAP2 SWAP1 PUSH1 0x1 ADD SWAP1 PUSH2 0x5AD JUMP JUMPDEST JUMPDEST POP SWAP1 POP PUSH2 0x613 SWAP2 SWAP1 PUSH2 0x617 JUMP JUMPDEST POP SWAP1 JUMP JUMPDEST JUMPDEST DUP1 DUP3 GT ISZERO PUSH2 0x630 JUMPI PUSH1 0x0 DUP2 PUSH1 0x0 SWAP1 SSTORE POP PUSH1 0x1 ADD PUSH2 0x618 JUMP JUMPDEST POP SWAP1 JUMP JUMPDEST PUSH1 0x0 DUP2 CALLDATALOAD SWAP1 POP PUSH2 0x643 DUP2 PUSH2 0x987 JUMP JUMPDEST SWAP3 SWAP2 POP POP JUMP JUMPDEST PUSH1 0x0 PUSH1 0x20 DUP3 DUP5 SUB SLT ISZERO PUSH2 0x65F JUMPI PUSH2 0x65E PUSH2 0x933 JUMP JUMPDEST JUMPDEST PUSH1 0x0 PUSH2 0x66D DUP5 DUP3 DUP6 ADD PUSH2 0x634 JUMP JUMPDEST SWAP2 POP POP SWAP3 SWAP2 POP POP JUMP JUMPDEST PUSH2 0x67F DUP2 PUSH2 0x800 JUMP JUMPDEST DUP3 MSTORE POP POP JUMP JUMPDEST PUSH1 0x0 PUSH2 0x692 PUSH1 0x35 DUP4 PUSH2 0x761 JUMP JUMPDEST SWAP2 POP PUSH2 0x69D DUP3 PUSH2 0x938 JUMP JUMPDEST PUSH1 0x40 DUP3 ADD SWAP1 POP SWAP2 SWAP1 POP JUMP JUMPDEST PUSH2 0x6B1 DUP2 PUSH2 0x832 JUMP JUMPDEST DUP3 MSTORE POP POP JUMP JUMPDEST PUSH2 0x6C8 PUSH2 0x6C3 DUP3 PUSH2 0x832 JUMP JUMPDEST PUSH2 0x83C JUMP JUMPDEST DUP3 MSTORE POP POP JUMP JUMPDEST PUSH1 0x0 PUSH2 0x6DA DUP3 DUP7 PUSH2 0x6B7 JUMP JUMPDEST PUSH1 0x20 DUP3 ADD SWAP2 POP PUSH2 0x6EA DUP3 DUP6 PUSH2 0x6B7 JUMP JUMPDEST PUSH1 0x20 DUP3 ADD SWAP2 POP PUSH2 0x6FA DUP3 DUP5 PUSH2 0x6B7 JUMP JUMPDEST PUSH1 0x20 DUP3 ADD SWAP2 POP DUP2 SWAP1 POP SWAP5 SWAP4 POP POP POP POP JUMP JUMPDEST PUSH1 0x0 PUSH1 0x20 DUP3 ADD SWAP1 POP PUSH2 0x720 PUSH1 0x0 DUP4 ADD DUP5 PUSH2 0x676 JUMP JUMPDEST SWAP3 SWAP2 POP POP JUMP JUMPDEST PUSH1 0x0 PUSH1 0x20 DUP3 ADD SWAP1 POP DUP2 DUP2 SUB PUSH1 0x0 DUP4 ADD MSTORE PUSH2 0x73F DUP2 PUSH2 0x685 JUMP JUMPDEST SWAP1 POP SWAP2 SWAP1 POP JUMP JUMPDEST PUSH1 0x0 PUSH1 0x20 DUP3 ADD SWAP1 POP PUSH2 0x75B PUSH1 0x0 DUP4 ADD DUP5 PUSH2 0x6A8 JUMP JUMPDEST SWAP3 SWAP2 POP POP JUMP JUMPDEST PUSH1 0x0 DUP3 DUP3 MSTORE PUSH1 0x20 DUP3 ADD SWAP1 POP SWAP3 SWAP2 POP POP JUMP JUMPDEST PUSH1 0x0 PUSH2 0x77D DUP3 PUSH2 0x832 JUMP JUMPDEST SWAP2 POP PUSH2 0x788 DUP4 PUSH2 0x832 JUMP JUMPDEST SWAP3 POP DUP2 PUSH32 0xFFFFFFFFFFFFFFFFFFFFFFFFFFFFFFFFFFFFFFFFFFFFFFFFFFFFFFFFFFFFFFFF DIV DUP4 GT DUP3 ISZERO ISZERO AND ISZERO PUSH2 0x7C1 JUMPI PUSH2 0x7C0 PUSH2 0x877 JUMP JUMPDEST JUMPDEST DUP3 DUP3 MUL SWAP1 POP SWAP3 SWAP2 POP POP JUMP JUMPDEST PUSH1 0x0 PUSH2 0x7D7 DUP3 PUSH2 0x832 JUMP JUMPDEST SWAP2 POP PUSH2 0x7E2 DUP4 PUSH2 0x832 JUMP JUMPDEST SWAP3 POP DUP3 DUP3 LT ISZERO PUSH2 0x7F5 JUMPI PUSH2 0x7F4 PUSH2 0x877 JUMP JUMPDEST JUMPDEST DUP3 DUP3 SUB SWAP1 POP SWAP3 SWAP2 POP POP JUMP JUMPDEST PUSH1 0x0 PUSH2 0x80B DUP3 PUSH2 0x812 JUMP JUMPDEST SWAP1 POP SWAP2 SWAP1 POP JUMP JUMPDEST PUSH1 0x0 PUSH20 0xFFFFFFFFFFFFFFFFFFFFFFFFFFFFFFFFFFFFFFFF DUP3 AND SWAP1 POP SWAP2 SWAP1 POP JUMP JUMPDEST PUSH1 0x0 DUP2 SWAP1 POP SWAP2 SWAP1 POP JUMP JUMPDEST PUSH1 0x0 DUP2 SWAP1 POP SWAP2 SWAP1 POP JUMP JUMPDEST PUSH1 0x0 PUSH2 0x851 DUP3 PUSH2 0x832 JUMP JUMPDEST SWAP2 POP PUSH2 0x85C DUP4 PUSH2 0x832 JUMP JUMPDEST SWAP3 POP DUP3 PUSH2 0x86C JUMPI PUSH2 0x86B PUSH2 0x8A6 JUMP JUMPDEST JUMPDEST DUP3 DUP3 MOD SWAP1 POP SWAP3 SWAP2 POP POP JUMP JUMPDEST PUSH32 0x4E487B7100000000000000000000000000000000000000000000000000000000 PUSH1 0x0 MSTORE PUSH1 0x11 PUSH1 0x4 MSTORE PUSH1 0x24 PUSH1 0x0 REVERT JUMPDEST PUSH32 0x4E487B7100000000000000000000000000000000000000000000000000000000 PUSH1 0x0 MSTORE PUSH1 0x12 PUSH1 0x4 MSTORE PUSH1 0x24 PUSH1 0x0 REVERT JUMPDEST PUSH32 0x4E487B7100000000000000000000000000000000000000000000000000000000 PUSH1 0x0 MSTORE PUSH1 0x32 PUSH1 0x4 MSTORE PUSH1 0x24 PUSH1 0x0 REVERT JUMPDEST PUSH32 0x4E487B7100000000000000000000000000000000000000000000000000000000 PUSH1 0x0 MSTORE PUSH1 0x41 PUSH1 0x4 MSTORE PUSH1 0x24 PUSH1 0x0 REVERT JUMPDEST PUSH1 0x0 DUP1 REVERT JUMPDEST PUSH32 0x5468697320636F6E7472616374206F6E6C792061636365707473207472616E73 PUSH1 0x0 DUP3 ADD MSTORE PUSH32 0x616374696F6E73206F6620302E30312065746865720000000000000000000000 PUSH1 0x20 DUP3 ADD MSTORE POP JUMP JUMPDEST PUSH2 0x990 DUP2 PUSH2 0x832 JUMP JUMPDEST DUP2 EQ PUSH2 0x99B JUMPI PUSH1 0x0 DUP1 REVERT JUMPDEST POP JUMP INVALID LOG2 PUSH5 0x6970667358 0x22 SLT KECCAK256 SUB PUSH27 0xAD8B36945B57F5DE1A85A4E28EB9DCEF80104489DA223583EA165D SUB 0xE6 DIFFICULTY PUSH5 0x736F6C6343 STOP ADDMOD SMOD STOP CALLER "
				},
				"gasEstimates": {
					"creation": {
						"codeDepositCost": "503200",
						"executionCost": "75518",
						"totalCost": "578718"
					},
					"external": {
						"getBalance()": "2487",
						"manager()": "2514",
						"pickWinner()": "infinite",
						"players(uint256)": "5000"
					},
					"internal": {
						"random()": "infinite"
					}
				},
				"methodIdentifiers": {
					"getBalance()": "12065fe0",
					"manager()": "481c6a75",
					"pickWinner()": "5d495aea",
					"players(uint256)": "f71d96cb"
				}
			},
			"storageLayout": {
				"storage": [
					{
						"astId": 4,
						"contract": "contracts/Lottery.sol:Lottery",
						"label": "players",
						"offset": 0,
						"slot": "0",
						"type": "t_array(t_address_payable)dyn_storage"
					},
					{
						"astId": 6,
						"contract": "contracts/Lottery.sol:Lottery",
						"label": "manager",
						"offset": 0,
						"slot": "1",
						"type": "t_address_payable"
					}
				],
				"types": {
					"t_address_payable": {
						"encoding": "inplace",
						"label": "address payable",
						"numberOfBytes": "20"
					},
					"t_array(t_address_payable)dyn_storage": {
						"base": "t_address_payable",
						"encoding": "dynamic_array",
						"label": "address payable[]",
						"numberOfBytes": "32"
					}
				}
			},
			"userdoc": {
				"kind": "user",
				"methods": {},
				"version": 1
			}
		}
	}
}